{
	"contracts/LearnFunctionModifiers.sol": {
		"LearnFunctionModifiers": {
			"abi": [
				{
					"inputs": [],
					"stateMutability": "nonpayable",
					"type": "constructor"
				},
				{
					"inputs": [
						{
							"internalType": "uint256",
							"name": "a",
							"type": "uint256"
						},
						{
							"internalType": "uint256",
							"name": "b",
							"type": "uint256"
						}
					],
					"name": "add",
					"outputs": [
						{
							"internalType": "uint256",
							"name": "",
							"type": "uint256"
						}
					],
					"stateMutability": "pure",
					"type": "function"
				},
				{
					"inputs": [],
					"name": "buyItem",
					"outputs": [
						{
							"internalType": "bool",
							"name": "",
							"type": "bool"
						}
					],
					"stateMutability": "payable",
					"type": "function"
				},
				{
					"inputs": [
						{
							"internalType": "uint256",
							"name": "x",
							"type": "uint256"
						}
					],
					"name": "calculateDouble",
					"outputs": [
						{
							"internalType": "uint256",
							"name": "",
							"type": "uint256"
						}
					],
					"stateMutability": "pure",
					"type": "function"
				},
				{
					"inputs": [],
					"name": "counter",
					"outputs": [
						{
							"internalType": "uint256",
							"name": "",
							"type": "uint256"
						}
					],
					"stateMutability": "view",
					"type": "function"
				},
				{
					"inputs": [],
					"name": "deposit",
					"outputs": [],
					"stateMutability": "payable",
					"type": "function"
				},
				{
					"inputs": [],
					"name": "getBalance",
					"outputs": [
						{
							"internalType": "uint256",
							"name": "",
							"type": "uint256"
						}
					],
					"stateMutability": "view",
					"type": "function"
				},
				{
					"inputs": [],
					"name": "getCounter",
					"outputs": [
						{
							"internalType": "uint256",
							"name": "",
							"type": "uint256"
						}
					],
					"stateMutability": "view",
					"type": "function"
				},
				{
					"inputs": [],
					"name": "getOwner",
					"outputs": [
						{
							"internalType": "address",
							"name": "",
							"type": "address"
						}
					],
					"stateMutability": "view",
					"type": "function"
				},
				{
					"inputs": [],
					"name": "incrementCounter",
					"outputs": [],
					"stateMutability": "nonpayable",
					"type": "function"
				},
				{
					"inputs": [
						{
							"internalType": "uint256",
							"name": "a",
							"type": "uint256"
						},
						{
							"internalType": "uint256",
							"name": "b",
							"type": "uint256"
						}
					],
					"name": "multiply",
					"outputs": [
						{
							"internalType": "uint256",
							"name": "",
							"type": "uint256"
						}
					],
					"stateMutability": "pure",
					"type": "function"
				},
				{
					"inputs": [],
					"name": "owner",
					"outputs": [
						{
							"internalType": "address",
							"name": "",
							"type": "address"
						}
					],
					"stateMutability": "view",
					"type": "function"
				},
				{
					"inputs": [
						{
							"internalType": "uint256",
							"name": "_newValue",
							"type": "uint256"
						}
					],
					"name": "setCounter",
					"outputs": [],
					"stateMutability": "nonpayable",
					"type": "function"
				}
			],
			"devdoc": {
				"kind": "dev",
				"methods": {},
				"version": 1
			},
			"evm": {
				"assembly": "    /* \"contracts/LearnFunctionModifiers.sol\":58:1560  contract LearnFunctionModifiers {... */\n  mstore(0x40, 0x80)\n    /* \"contracts/LearnFunctionModifiers.sol\":121:122  0 */\n  0x00\n    /* \"contracts/LearnFunctionModifiers.sol\":96:122  uint256 public counter = 0 */\n  0x00\n  sstore\n    /* \"contracts/LearnFunctionModifiers.sol\":155:204  constructor() {... */\n  callvalue\n  dup1\n  iszero\n  tag_1\n  jumpi\n  revert(0x00, 0x00)\ntag_1:\n  pop\n    /* \"contracts/LearnFunctionModifiers.sol\":179:184  owner */\n  0x01\n    /* \"contracts/LearnFunctionModifiers.sol\":179:197  owner = msg.sender */\n  dup1\n  sload\n  not(sub(shl(0xa0, 0x01), 0x01))\n  and\n    /* \"contracts/LearnFunctionModifiers.sol\":187:197  msg.sender */\n  caller\n    /* \"contracts/LearnFunctionModifiers.sol\":179:197  owner = msg.sender */\n  or\n  swap1\n  sstore\n    /* \"contracts/LearnFunctionModifiers.sol\":58:1560  contract LearnFunctionModifiers {... */\n  dataSize(sub_0)\n  dup1\n  dataOffset(sub_0)\n  0x00\n  codecopy\n  0x00\n  return\nstop\n\nsub_0: assembly {\n        /* \"contracts/LearnFunctionModifiers.sol\":58:1560  contract LearnFunctionModifiers {... */\n      mstore(0x40, 0x80)\n      jumpi(tag_1, lt(calldatasize, 0x04))\n      shr(0xe0, calldataload(0x00))\n      dup1\n      0x795612d6\n      gt\n      tag_14\n      jumpi\n      dup1\n      0x795612d6\n      eq\n      tag_8\n      jumpi\n      dup1\n      0x893d20e8\n      eq\n      tag_9\n      jumpi\n      dup1\n      0x8ada066e\n      eq\n      tag_10\n      jumpi\n      dup1\n      0x8bb5d9c3\n      eq\n      tag_11\n      jumpi\n      dup1\n      0x8da5cb5b\n      eq\n      tag_12\n      jumpi\n      dup1\n      0xd0e30db0\n      eq\n      tag_33\n      jumpi\n      revert(0x00, 0x00)\n    tag_14:\n      dup1\n      0x12065fe0\n      eq\n      tag_2\n      jumpi\n      dup1\n      0x165c4a16\n      eq\n      tag_3\n      jumpi\n      dup1\n      0x1ae062c4\n      eq\n      tag_4\n      jumpi\n      dup1\n      0x5b34b966\n      eq\n      tag_5\n      jumpi\n      dup1\n      0x61bc221a\n      eq\n      tag_6\n      jumpi\n      dup1\n      0x771602f7\n      eq\n      tag_7\n      jumpi\n    tag_1:\n      revert(0x00, 0x00)\n        /* \"contracts/LearnFunctionModifiers.sol\":1461:1558  function getBalance() public view returns (uint256) {... */\n    tag_2:\n      callvalue\n      dup1\n      iszero\n      tag_15\n      jumpi\n      revert(0x00, 0x00)\n    tag_15:\n      pop\n        /* \"contracts/LearnFunctionModifiers.sol\":1530:1551  address(this).balance */\n      selfbalance\n        /* \"contracts/LearnFunctionModifiers.sol\":1461:1558  function getBalance() public view returns (uint256) {... */\n    tag_16:\n      mload(0x40)\n        /* \"#utility.yul\":160:185   */\n      swap1\n      dup2\n      mstore\n        /* \"#utility.yul\":148:150   */\n      0x20\n        /* \"#utility.yul\":133:151   */\n      add\n        /* \"contracts/LearnFunctionModifiers.sol\":1461:1558  function getBalance() public view returns (uint256) {... */\n    tag_18:\n      mload(0x40)\n      dup1\n      swap2\n      sub\n      swap1\n      return\n        /* \"contracts/LearnFunctionModifiers.sol\":806:905  function multiply(uint256 a, uint256 b) public pure returns (uint256) {... */\n    tag_3:\n      callvalue\n      dup1\n      iszero\n      tag_20\n      jumpi\n      revert(0x00, 0x00)\n    tag_20:\n      pop\n      tag_16\n      tag_22\n      calldatasize\n      0x04\n      tag_23\n      jump\t// in\n    tag_22:\n      tag_24\n      jump\t// in\n        /* \"contracts/LearnFunctionModifiers.sol\":469:612  function calculateDouble(uint256 x) public pure returns (uint256) {... */\n    tag_4:\n      callvalue\n      dup1\n      iszero\n      tag_26\n      jumpi\n      revert(0x00, 0x00)\n    tag_26:\n      pop\n      tag_16\n      tag_28\n      calldatasize\n      0x04\n      tag_29\n      jump\t// in\n    tag_28:\n      tag_30\n      jump\t// in\n        /* \"contracts/LearnFunctionModifiers.sol\":1231:1319  function incrementCounter() public {... */\n    tag_5:\n      callvalue\n      dup1\n      iszero\n      tag_32\n      jumpi\n      revert(0x00, 0x00)\n    tag_32:\n      pop\n      tag_33\n      tag_34\n      jump\t// in\n    tag_33:\n      stop\n        /* \"contracts/LearnFunctionModifiers.sol\":96:122  uint256 public counter = 0 */\n    tag_6:\n      callvalue\n      dup1\n      iszero\n      tag_35\n      jumpi\n      revert(0x00, 0x00)\n    tag_35:\n      pop\n      tag_16\n      sload(0x00)\n      dup2\n      jump\n        /* \"contracts/LearnFunctionModifiers.sol\":673:800  function add(uint256 a, uint256 b) public pure returns (uint256) {... */\n    tag_7:\n      callvalue\n      dup1\n      iszero\n      tag_39\n      jumpi\n      revert(0x00, 0x00)\n    tag_39:\n      pop\n      tag_16\n      tag_41\n      calldatasize\n      0x04\n      tag_23\n      jump\t// in\n    tag_41:\n      tag_42\n      jump\t// in\n        /* \"contracts/LearnFunctionModifiers.sol\":1026:1167  function buyItem() public payable returns (bool) {... */\n    tag_8:\n      tag_44\n      tag_45\n      jump\t// in\n    tag_44:\n      mload(0x40)\n        /* \"#utility.yul\":943:957   */\n      swap1\n      iszero\n        /* \"#utility.yul\":936:958   */\n      iszero\n        /* \"#utility.yul\":918:959   */\n      dup2\n      mstore\n        /* \"#utility.yul\":906:908   */\n      0x20\n        /* \"#utility.yul\":891:909   */\n      add\n        /* \"contracts/LearnFunctionModifiers.sol\":1026:1167  function buyItem() public payable returns (bool) {... */\n      tag_18\n        /* \"#utility.yul\":778:965   */\n      jump\n        /* \"contracts/LearnFunctionModifiers.sol\":367:463  function getOwner() public view returns (address) {... */\n    tag_9:\n      callvalue\n      dup1\n      iszero\n      tag_48\n      jumpi\n      revert(0x00, 0x00)\n    tag_48:\n      pop\n        /* \"contracts/LearnFunctionModifiers.sol\":434:439  owner */\n      and(sub(shl(0xa0, 0x01), 0x01), sload(0x01))\n        /* \"contracts/LearnFunctionModifiers.sol\":367:463  function getOwner() public view returns (address) {... */\n    tag_49:\n      mload(0x40)\n      sub(shl(0xa0, 0x01), 0x01)\n        /* \"#utility.yul\":1134:1166   */\n      swap1\n      swap2\n      and\n        /* \"#utility.yul\":1116:1167   */\n      dup2\n      mstore\n        /* \"#utility.yul\":1104:1106   */\n      0x20\n        /* \"#utility.yul\":1089:1107   */\n      add\n        /* \"contracts/LearnFunctionModifiers.sol\":367:463  function getOwner() public view returns (address) {... */\n      tag_18\n        /* \"#utility.yul\":970:1173   */\n      jump\n        /* \"contracts/LearnFunctionModifiers.sol\":263:361  function getCounter() public view returns (uint256) {... */\n    tag_10:\n      callvalue\n      dup1\n      iszero\n      tag_53\n      jumpi\n      revert(0x00, 0x00)\n    tag_53:\n      pop\n        /* \"contracts/LearnFunctionModifiers.sol\":306:313  uint256 */\n      0x00\n        /* \"contracts/LearnFunctionModifiers.sol\":332:339  counter */\n      sload\n        /* \"contracts/LearnFunctionModifiers.sol\":263:361  function getCounter() public view returns (uint256) {... */\n      jump(tag_16)\n        /* \"contracts/LearnFunctionModifiers.sol\":1325:1434  function setCounter(uint256 _newValue) public {... */\n    tag_11:\n      callvalue\n      dup1\n      iszero\n      tag_57\n      jumpi\n      revert(0x00, 0x00)\n    tag_57:\n      pop\n      tag_33\n      tag_59\n      calldatasize\n      0x04\n      tag_29\n      jump\t// in\n    tag_59:\n        /* \"contracts/LearnFunctionModifiers.sol\":1381:1388  counter */\n      0x00\n        /* \"contracts/LearnFunctionModifiers.sol\":1381:1400  counter = _newValue */\n      sstore\n        /* \"contracts/LearnFunctionModifiers.sol\":1325:1434  function setCounter(uint256 _newValue) public {... */\n      jump\n        /* \"contracts/LearnFunctionModifiers.sol\":128:148  address public owner */\n    tag_12:\n      callvalue\n      dup1\n      iszero\n      tag_61\n      jumpi\n      revert(0x00, 0x00)\n    tag_61:\n      pop\n      sload(0x01)\n      tag_49\n      swap1\n      sub(shl(0xa0, 0x01), 0x01)\n      and\n      dup2\n      jump\n        /* \"contracts/LearnFunctionModifiers.sol\":806:905  function multiply(uint256 a, uint256 b) public pure returns (uint256) {... */\n    tag_24:\n        /* \"contracts/LearnFunctionModifiers.sol\":867:874  uint256 */\n      0x00\n        /* \"contracts/LearnFunctionModifiers.sol\":893:898  a * b */\n      tag_69\n        /* \"contracts/LearnFunctionModifiers.sol\":897:898  b */\n      dup3\n        /* \"contracts/LearnFunctionModifiers.sol\":893:894  a */\n      dup5\n        /* \"contracts/LearnFunctionModifiers.sol\":893:898  a * b */\n      tag_70\n      jump\t// in\n    tag_69:\n        /* \"contracts/LearnFunctionModifiers.sol\":886:898  return a * b */\n      swap1\n      pop\n        /* \"contracts/LearnFunctionModifiers.sol\":806:905  function multiply(uint256 a, uint256 b) public pure returns (uint256) {... */\n    tag_68:\n      swap3\n      swap2\n      pop\n      pop\n      jump\t// out\n        /* \"contracts/LearnFunctionModifiers.sol\":469:612  function calculateDouble(uint256 x) public pure returns (uint256) {... */\n    tag_30:\n        /* \"contracts/LearnFunctionModifiers.sol\":526:533  uint256 */\n      0x00\n        /* \"contracts/LearnFunctionModifiers.sol\":600:605  x * 2 */\n      tag_68\n        /* \"contracts/LearnFunctionModifiers.sol\":600:601  x */\n      dup3\n        /* \"contracts/LearnFunctionModifiers.sol\":604:605  2 */\n      0x02\n        /* \"contracts/LearnFunctionModifiers.sol\":600:605  x * 2 */\n      tag_70\n      jump\t// in\n        /* \"contracts/LearnFunctionModifiers.sol\":1231:1319  function incrementCounter() public {... */\n    tag_34:\n        /* \"contracts/LearnFunctionModifiers.sol\":1276:1283  counter */\n      0x00\n        /* \"contracts/LearnFunctionModifiers.sol\":1276:1285  counter++ */\n      dup1\n      sload\n      swap1\n        /* \"contracts/LearnFunctionModifiers.sol\":1276:1283  counter */\n      dup1\n        /* \"contracts/LearnFunctionModifiers.sol\":1276:1285  counter++ */\n      tag_74\n      dup4\n      tag_75\n      jump\t// in\n    tag_74:\n      swap2\n      swap1\n      pop\n      sstore\n      pop\n        /* \"contracts/LearnFunctionModifiers.sol\":1231:1319  function incrementCounter() public {... */\n      jump\t// out\n        /* \"contracts/LearnFunctionModifiers.sol\":673:800  function add(uint256 a, uint256 b) public pure returns (uint256) {... */\n    tag_42:\n        /* \"contracts/LearnFunctionModifiers.sol\":729:736  uint256 */\n      0x00\n        /* \"contracts/LearnFunctionModifiers.sol\":788:793  a + b */\n      tag_69\n        /* \"contracts/LearnFunctionModifiers.sol\":792:793  b */\n      dup3\n        /* \"contracts/LearnFunctionModifiers.sol\":788:789  a */\n      dup5\n        /* \"contracts/LearnFunctionModifiers.sol\":788:793  a + b */\n      tag_78\n      jump\t// in\n        /* \"contracts/LearnFunctionModifiers.sol\":1026:1167  function buyItem() public payable returns (bool) {... */\n    tag_45:\n        /* \"contracts/LearnFunctionModifiers.sol\":1069:1073  bool */\n      0x00\n        /* \"contracts/LearnFunctionModifiers.sol\":1106:1117  0.001 ether */\n      0x038d7ea4c68000\n        /* \"contracts/LearnFunctionModifiers.sol\":1093:1102  msg.value */\n      callvalue\n        /* \"contracts/LearnFunctionModifiers.sol\":1093:1117  msg.value >= 0.001 ether */\n      lt\n      iszero\n        /* \"contracts/LearnFunctionModifiers.sol\":1085:1139  require(msg.value >= 0.001 ether, \"Minimal 0.001 ETH\") */\n      tag_80\n      jumpi\n      mload(0x40)\n      shl(0xe5, 0x461bcd)\n      dup2\n      mstore\n        /* \"#utility.yul\":1955:1957   */\n      0x20\n        /* \"contracts/LearnFunctionModifiers.sol\":1085:1139  require(msg.value >= 0.001 ether, \"Minimal 0.001 ETH\") */\n      0x04\n      dup3\n      add\n        /* \"#utility.yul\":1937:1958   */\n      mstore\n        /* \"#utility.yul\":1994:1996   */\n      0x11\n        /* \"#utility.yul\":1974:1992   */\n      0x24\n      dup3\n      add\n        /* \"#utility.yul\":1967:1997   */\n      mstore\n      shl(0x7b, 0x09ad2dcd2dac2d840605c606062408aa89)\n        /* \"#utility.yul\":2013:2031   */\n      0x44\n      dup3\n      add\n        /* \"#utility.yul\":2006:2053   */\n      mstore\n        /* \"#utility.yul\":2070:2088   */\n      0x64\n      add\n        /* \"contracts/LearnFunctionModifiers.sol\":1085:1139  require(msg.value >= 0.001 ether, \"Minimal 0.001 ETH\") */\n      mload(0x40)\n      dup1\n      swap2\n      sub\n      swap1\n      revert\n    tag_80:\n      pop\n        /* \"contracts/LearnFunctionModifiers.sol\":1156:1160  true */\n      0x01\n      swap1\n        /* \"contracts/LearnFunctionModifiers.sol\":1026:1167  function buyItem() public payable returns (bool) {... */\n      jump\t// out\n        /* \"#utility.yul\":196:542   */\n    tag_23:\n        /* \"#utility.yul\":264:270   */\n      0x00\n        /* \"#utility.yul\":272:278   */\n      0x00\n        /* \"#utility.yul\":325:327   */\n      0x40\n        /* \"#utility.yul\":313:322   */\n      dup4\n        /* \"#utility.yul\":304:311   */\n      dup6\n        /* \"#utility.yul\":300:323   */\n      sub\n        /* \"#utility.yul\":296:328   */\n      slt\n        /* \"#utility.yul\":293:345   */\n      iszero\n      tag_91\n      jumpi\n        /* \"#utility.yul\":341:342   */\n      0x00\n        /* \"#utility.yul\":338:339   */\n      0x00\n        /* \"#utility.yul\":331:343   */\n      revert\n        /* \"#utility.yul\":293:345   */\n    tag_91:\n      pop\n      pop\n        /* \"#utility.yul\":386:409   */\n      dup1\n      calldataload\n      swap3\n        /* \"#utility.yul\":506:508   */\n      0x20\n        /* \"#utility.yul\":491:509   */\n      swap1\n      swap2\n      add\n        /* \"#utility.yul\":478:510   */\n      calldataload\n      swap2\n      pop\n        /* \"#utility.yul\":196:542   */\n      jump\t// out\n        /* \"#utility.yul\":547:773   */\n    tag_29:\n        /* \"#utility.yul\":606:612   */\n      0x00\n        /* \"#utility.yul\":659:661   */\n      0x20\n        /* \"#utility.yul\":647:656   */\n      dup3\n        /* \"#utility.yul\":638:645   */\n      dup5\n        /* \"#utility.yul\":634:657   */\n      sub\n        /* \"#utility.yul\":630:662   */\n      slt\n        /* \"#utility.yul\":627:679   */\n      iszero\n      tag_93\n      jumpi\n        /* \"#utility.yul\":675:676   */\n      0x00\n        /* \"#utility.yul\":672:673   */\n      0x00\n        /* \"#utility.yul\":665:677   */\n      revert\n        /* \"#utility.yul\":627:679   */\n    tag_93:\n      pop\n        /* \"#utility.yul\":720:743   */\n      calldataload\n      swap2\n        /* \"#utility.yul\":547:773   */\n      swap1\n      pop\n      jump\t// out\n        /* \"#utility.yul\":1178:1305   */\n    tag_87:\n        /* \"#utility.yul\":1239:1249   */\n      0x4e487b71\n        /* \"#utility.yul\":1234:1237   */\n      0xe0\n        /* \"#utility.yul\":1230:1250   */\n      shl\n        /* \"#utility.yul\":1227:1228   */\n      0x00\n        /* \"#utility.yul\":1220:1251   */\n      mstore\n        /* \"#utility.yul\":1270:1274   */\n      0x11\n        /* \"#utility.yul\":1267:1268   */\n      0x04\n        /* \"#utility.yul\":1260:1275   */\n      mstore\n        /* \"#utility.yul\":1294:1298   */\n      0x24\n        /* \"#utility.yul\":1291:1292   */\n      0x00\n        /* \"#utility.yul\":1284:1299   */\n      revert\n        /* \"#utility.yul\":1310:1478   */\n    tag_70:\n        /* \"#utility.yul\":1383:1392   */\n      dup1\n      dup3\n      mul\n        /* \"#utility.yul\":1414:1423   */\n      dup2\n      iszero\n        /* \"#utility.yul\":1431:1446   */\n      dup3\n      dup3\n      div\n        /* \"#utility.yul\":1425:1447   */\n      dup5\n      eq\n        /* \"#utility.yul\":1411:1448   */\n      or\n        /* \"#utility.yul\":1401:1472   */\n      tag_68\n      jumpi\n        /* \"#utility.yul\":1452:1470   */\n      tag_68\n      tag_87\n      jump\t// in\n        /* \"#utility.yul\":1483:1618   */\n    tag_75:\n        /* \"#utility.yul\":1522:1525   */\n      0x00\n        /* \"#utility.yul\":1543:1560   */\n      0x01\n      dup3\n      add\n        /* \"#utility.yul\":1540:1583   */\n      tag_102\n      jumpi\n        /* \"#utility.yul\":1563:1581   */\n      tag_102\n      tag_87\n      jump\t// in\n    tag_102:\n      pop\n        /* \"#utility.yul\":1610:1611   */\n      0x01\n        /* \"#utility.yul\":1599:1612   */\n      add\n      swap1\n        /* \"#utility.yul\":1483:1618   */\n      jump\t// out\n        /* \"#utility.yul\":1623:1748   */\n    tag_78:\n        /* \"#utility.yul\":1688:1697   */\n      dup1\n      dup3\n      add\n        /* \"#utility.yul\":1709:1719   */\n      dup1\n      dup3\n      gt\n        /* \"#utility.yul\":1706:1742   */\n      iszero\n      tag_68\n      jumpi\n        /* \"#utility.yul\":1722:1740   */\n      tag_68\n      tag_87\n      jump\t// in\n\n    auxdata: 0xa264697066735822122051fa266e9fd1565c2d02bba7a0799faf8dbba210e55bc4d9b1e029eb0e02b05764736f6c634300081e0033\n}\n",
				"bytecode": {
					"linkReferences": {},
					"object": "60806040525f5f553480156011575f5ffd5b50600180546001600160a01b03191633179055610343806100315f395ff3fe6080604052600436106100a5575f3560e01c8063795612d611610062578063795612d614610151578063893d20e8146101695780638ada066e1461019a5780638bb5d9c3146101ad5780638da5cb5b146101cb578063d0e30db01461011c575f5ffd5b806312065fe0146100a9578063165c4a16146100ca5780631ae062c4146100e95780635b34b9661461010857806361bc221a1461011e578063771602f714610132575b5f5ffd5b3480156100b4575f5ffd5b50475b6040519081526020015b60405180910390f35b3480156100d5575f5ffd5b506100b76100e4366004610280565b6101ea565b3480156100f4575f5ffd5b506100b76101033660046102a0565b6101fe565b348015610113575f5ffd5b5061011c61020a565b005b348015610129575f5ffd5b506100b75f5481565b34801561013d575f5ffd5b506100b761014c366004610280565b61021f565b61015961022a565b60405190151581526020016100c1565b348015610174575f5ffd5b506001546001600160a01b03165b6040516001600160a01b0390911681526020016100c1565b3480156101a5575f5ffd5b505f546100b7565b3480156101b8575f5ffd5b5061011c6101c73660046102a0565b5f55565b3480156101d6575f5ffd5b50600154610182906001600160a01b031681565b5f6101f582846102cb565b90505b92915050565b5f6101f88260026102cb565b5f80549080610218836102e2565b9190505550565b5f6101f582846102fa565b5f66038d7ea4c6800034101561027a5760405162461bcd60e51b815260206004820152601160248201527009ad2dcd2dac2d840605c606062408aa89607b1b604482015260640160405180910390fd5b50600190565b5f5f60408385031215610291575f5ffd5b50508035926020909101359150565b5f602082840312156102b0575f5ffd5b5035919050565b634e487b7160e01b5f52601160045260245ffd5b80820281158282048414176101f8576101f86102b7565b5f600182016102f3576102f36102b7565b5060010190565b808201808211156101f8576101f86102b756fea264697066735822122051fa266e9fd1565c2d02bba7a0799faf8dbba210e55bc4d9b1e029eb0e02b05764736f6c634300081e0033",
					"opcodes": "PUSH1 0x80 PUSH1 0x40 MSTORE PUSH0 PUSH0 SSTORE CALLVALUE DUP1 ISZERO PUSH1 0x11 JUMPI PUSH0 PUSH0 REVERT JUMPDEST POP PUSH1 0x1 DUP1 SLOAD PUSH1 0x1 PUSH1 0x1 PUSH1 0xA0 SHL SUB NOT AND CALLER OR SWAP1 SSTORE PUSH2 0x343 DUP1 PUSH2 0x31 PUSH0 CODECOPY PUSH0 RETURN INVALID PUSH1 0x80 PUSH1 0x40 MSTORE PUSH1 0x4 CALLDATASIZE LT PUSH2 0xA5 JUMPI PUSH0 CALLDATALOAD PUSH1 0xE0 SHR DUP1 PUSH4 0x795612D6 GT PUSH2 0x62 JUMPI DUP1 PUSH4 0x795612D6 EQ PUSH2 0x151 JUMPI DUP1 PUSH4 0x893D20E8 EQ PUSH2 0x169 JUMPI DUP1 PUSH4 0x8ADA066E EQ PUSH2 0x19A JUMPI DUP1 PUSH4 0x8BB5D9C3 EQ PUSH2 0x1AD JUMPI DUP1 PUSH4 0x8DA5CB5B EQ PUSH2 0x1CB JUMPI DUP1 PUSH4 0xD0E30DB0 EQ PUSH2 0x11C JUMPI PUSH0 PUSH0 REVERT JUMPDEST DUP1 PUSH4 0x12065FE0 EQ PUSH2 0xA9 JUMPI DUP1 PUSH4 0x165C4A16 EQ PUSH2 0xCA JUMPI DUP1 PUSH4 0x1AE062C4 EQ PUSH2 0xE9 JUMPI DUP1 PUSH4 0x5B34B966 EQ PUSH2 0x108 JUMPI DUP1 PUSH4 0x61BC221A EQ PUSH2 0x11E JUMPI DUP1 PUSH4 0x771602F7 EQ PUSH2 0x132 JUMPI JUMPDEST PUSH0 PUSH0 REVERT JUMPDEST CALLVALUE DUP1 ISZERO PUSH2 0xB4 JUMPI PUSH0 PUSH0 REVERT JUMPDEST POP SELFBALANCE JUMPDEST PUSH1 0x40 MLOAD SWAP1 DUP2 MSTORE PUSH1 0x20 ADD JUMPDEST PUSH1 0x40 MLOAD DUP1 SWAP2 SUB SWAP1 RETURN JUMPDEST CALLVALUE DUP1 ISZERO PUSH2 0xD5 JUMPI PUSH0 PUSH0 REVERT JUMPDEST POP PUSH2 0xB7 PUSH2 0xE4 CALLDATASIZE PUSH1 0x4 PUSH2 0x280 JUMP JUMPDEST PUSH2 0x1EA JUMP JUMPDEST CALLVALUE DUP1 ISZERO PUSH2 0xF4 JUMPI PUSH0 PUSH0 REVERT JUMPDEST POP PUSH2 0xB7 PUSH2 0x103 CALLDATASIZE PUSH1 0x4 PUSH2 0x2A0 JUMP JUMPDEST PUSH2 0x1FE JUMP JUMPDEST CALLVALUE DUP1 ISZERO PUSH2 0x113 JUMPI PUSH0 PUSH0 REVERT JUMPDEST POP PUSH2 0x11C PUSH2 0x20A JUMP JUMPDEST STOP JUMPDEST CALLVALUE DUP1 ISZERO PUSH2 0x129 JUMPI PUSH0 PUSH0 REVERT JUMPDEST POP PUSH2 0xB7 PUSH0 SLOAD DUP2 JUMP JUMPDEST CALLVALUE DUP1 ISZERO PUSH2 0x13D JUMPI PUSH0 PUSH0 REVERT JUMPDEST POP PUSH2 0xB7 PUSH2 0x14C CALLDATASIZE PUSH1 0x4 PUSH2 0x280 JUMP JUMPDEST PUSH2 0x21F JUMP JUMPDEST PUSH2 0x159 PUSH2 0x22A JUMP JUMPDEST PUSH1 0x40 MLOAD SWAP1 ISZERO ISZERO DUP2 MSTORE PUSH1 0x20 ADD PUSH2 0xC1 JUMP JUMPDEST CALLVALUE DUP1 ISZERO PUSH2 0x174 JUMPI PUSH0 PUSH0 REVERT JUMPDEST POP PUSH1 0x1 SLOAD PUSH1 0x1 PUSH1 0x1 PUSH1 0xA0 SHL SUB AND JUMPDEST PUSH1 0x40 MLOAD PUSH1 0x1 PUSH1 0x1 PUSH1 0xA0 SHL SUB SWAP1 SWAP2 AND DUP2 MSTORE PUSH1 0x20 ADD PUSH2 0xC1 JUMP JUMPDEST CALLVALUE DUP1 ISZERO PUSH2 0x1A5 JUMPI PUSH0 PUSH0 REVERT JUMPDEST POP PUSH0 SLOAD PUSH2 0xB7 JUMP JUMPDEST CALLVALUE DUP1 ISZERO PUSH2 0x1B8 JUMPI PUSH0 PUSH0 REVERT JUMPDEST POP PUSH2 0x11C PUSH2 0x1C7 CALLDATASIZE PUSH1 0x4 PUSH2 0x2A0 JUMP JUMPDEST PUSH0 SSTORE JUMP JUMPDEST CALLVALUE DUP1 ISZERO PUSH2 0x1D6 JUMPI PUSH0 PUSH0 REVERT JUMPDEST POP PUSH1 0x1 SLOAD PUSH2 0x182 SWAP1 PUSH1 0x1 PUSH1 0x1 PUSH1 0xA0 SHL SUB AND DUP2 JUMP JUMPDEST PUSH0 PUSH2 0x1F5 DUP3 DUP5 PUSH2 0x2CB JUMP JUMPDEST SWAP1 POP JUMPDEST SWAP3 SWAP2 POP POP JUMP JUMPDEST PUSH0 PUSH2 0x1F8 DUP3 PUSH1 0x2 PUSH2 0x2CB JUMP JUMPDEST PUSH0 DUP1 SLOAD SWAP1 DUP1 PUSH2 0x218 DUP4 PUSH2 0x2E2 JUMP JUMPDEST SWAP2 SWAP1 POP SSTORE POP JUMP JUMPDEST PUSH0 PUSH2 0x1F5 DUP3 DUP5 PUSH2 0x2FA JUMP JUMPDEST PUSH0 PUSH7 0x38D7EA4C68000 CALLVALUE LT ISZERO PUSH2 0x27A JUMPI PUSH1 0x40 MLOAD PUSH3 0x461BCD PUSH1 0xE5 SHL DUP2 MSTORE PUSH1 0x20 PUSH1 0x4 DUP3 ADD MSTORE PUSH1 0x11 PUSH1 0x24 DUP3 ADD MSTORE PUSH17 0x9AD2DCD2DAC2D840605C606062408AA89 PUSH1 0x7B SHL PUSH1 0x44 DUP3 ADD MSTORE PUSH1 0x64 ADD PUSH1 0x40 MLOAD DUP1 SWAP2 SUB SWAP1 REVERT JUMPDEST POP PUSH1 0x1 SWAP1 JUMP JUMPDEST PUSH0 PUSH0 PUSH1 0x40 DUP4 DUP6 SUB SLT ISZERO PUSH2 0x291 JUMPI PUSH0 PUSH0 REVERT JUMPDEST POP POP DUP1 CALLDATALOAD SWAP3 PUSH1 0x20 SWAP1 SWAP2 ADD CALLDATALOAD SWAP2 POP JUMP JUMPDEST PUSH0 PUSH1 0x20 DUP3 DUP5 SUB SLT ISZERO PUSH2 0x2B0 JUMPI PUSH0 PUSH0 REVERT JUMPDEST POP CALLDATALOAD SWAP2 SWAP1 POP JUMP JUMPDEST PUSH4 0x4E487B71 PUSH1 0xE0 SHL PUSH0 MSTORE PUSH1 0x11 PUSH1 0x4 MSTORE PUSH1 0x24 PUSH0 REVERT JUMPDEST DUP1 DUP3 MUL DUP2 ISZERO DUP3 DUP3 DIV DUP5 EQ OR PUSH2 0x1F8 JUMPI PUSH2 0x1F8 PUSH2 0x2B7 JUMP JUMPDEST PUSH0 PUSH1 0x1 DUP3 ADD PUSH2 0x2F3 JUMPI PUSH2 0x2F3 PUSH2 0x2B7 JUMP JUMPDEST POP PUSH1 0x1 ADD SWAP1 JUMP JUMPDEST DUP1 DUP3 ADD DUP1 DUP3 GT ISZERO PUSH2 0x1F8 JUMPI PUSH2 0x1F8 PUSH2 0x2B7 JUMP INVALID LOG2 PUSH5 0x6970667358 0x22 SLT KECCAK256 MLOAD STATICCALL 0x26 PUSH15 0x9FD1565C2D02BBA7A0799FAF8DBBA2 LT JUMPF 0x5BC4 0xD9 0xB1 RJUMP 0x29EB 0xE MUL 0xB0 JUMPI PUSH5 0x736F6C6343 STOP ADDMOD 0x1E STOP CALLER "
				},
				"gasEstimates": {
					"creation": {
						"codeDepositCost": "167000",
						"executionCost": "29451",
						"totalCost": "196451"
					},
					"external": {
						"add(uint256,uint256)": "infinite",
						"buyItem()": "247",
						"calculateDouble(uint256)": "infinite",
						"counter()": "2371",
						"deposit()": "205",
						"getBalance()": "172",
						"getCounter()": "2323",
						"getOwner()": "2341",
						"incrementCounter()": "24494",
						"multiply(uint256,uint256)": "infinite",
						"owner()": "2424",
						"setCounter(uint256)": "22375"
					}
				},
				"methodIdentifiers": {
					"add(uint256,uint256)": "771602f7",
					"buyItem()": "795612d6",
					"calculateDouble(uint256)": "1ae062c4",
					"counter()": "61bc221a",
					"deposit()": "d0e30db0",
					"getBalance()": "12065fe0",
					"getCounter()": "8ada066e",
					"getOwner()": "893d20e8",
					"incrementCounter()": "5b34b966",
					"multiply(uint256,uint256)": "165c4a16",
					"owner()": "8da5cb5b",
					"setCounter(uint256)": "8bb5d9c3"
				}
			},
			"storageLayout": {
				"storage": [
					{
						"astId": 4,
						"contract": "contracts/LearnFunctionModifiers.sol:LearnFunctionModifiers",
						"label": "counter",
						"offset": 0,
						"slot": "0",
						"type": "t_uint256"
					},
					{
						"astId": 6,
						"contract": "contracts/LearnFunctionModifiers.sol:LearnFunctionModifiers",
						"label": "owner",
						"offset": 0,
						"slot": "1",
						"type": "t_address"
					}
				],
				"types": {
					"t_address": {
						"encoding": "inplace",
						"label": "address",
						"numberOfBytes": "20"
					},
					"t_uint256": {
						"encoding": "inplace",
						"label": "uint256",
						"numberOfBytes": "32"
					}
				}
			},
			"userdoc": {
				"kind": "user",
				"methods": {},
				"version": 1
			}
		}
	}
}