{
	"contracts/LearnPayable.sol": {
		"LearnPayable": {
			"abi": [
				{
					"inputs": [],
					"name": "buyPlant",
					"outputs": [
						{
							"internalType": "uint256",
							"name": "",
							"type": "uint256"
						}
					],
					"stateMutability": "payable",
					"type": "function"
				},
				{
					"inputs": [],
					"name": "getBalance",
					"outputs": [
						{
							"internalType": "uint256",
							"name": "",
							"type": "uint256"
						}
					],
					"stateMutability": "view",
					"type": "function"
				},
				{
					"inputs": [],
					"name": "plantCounter",
					"outputs": [
						{
							"internalType": "uint256",
							"name": "",
							"type": "uint256"
						}
					],
					"stateMutability": "view",
					"type": "function"
				}
			],
			"devdoc": {
				"kind": "dev",
				"methods": {},
				"version": 1
			},
			"evm": {
				"assembly": "    /* \"contracts/LearnPayable.sol\":58:468  contract LearnPayable {... */\n  mstore(0x40, 0x80)\n  callvalue\n  dup1\n  iszero\n  tag_1\n  jumpi\n  revert(0x00, 0x00)\ntag_1:\n  pop\n  dataSize(sub_0)\n  dup1\n  dataOffset(sub_0)\n  0x00\n  codecopy\n  0x00\n  return\nstop\n\nsub_0: assembly {\n        /* \"contracts/LearnPayable.sol\":58:468  contract LearnPayable {... */\n      mstore(0x40, 0x80)\n      jumpi(tag_1, lt(calldatasize, 0x04))\n      shr(0xe0, calldataload(0x00))\n      dup1\n      0x12065fe0\n      eq\n      tag_2\n      jumpi\n      dup1\n      0x31fe915e\n      eq\n      tag_3\n      jumpi\n      dup1\n      0x9c471749\n      eq\n      tag_4\n      jumpi\n    tag_1:\n      revert(0x00, 0x00)\n        /* \"contracts/LearnPayable.sol\":369:466  function getBalance() public view returns (uint256) {... */\n    tag_2:\n      callvalue\n      dup1\n      iszero\n      tag_5\n      jumpi\n      revert(0x00, 0x00)\n    tag_5:\n      pop\n        /* \"contracts/LearnPayable.sol\":438:459  address(this).balance */\n      selfbalance\n        /* \"contracts/LearnPayable.sol\":369:466  function getBalance() public view returns (uint256) {... */\n    tag_6:\n      mload(0x40)\n        /* \"#utility.yul\":160:185   */\n      swap1\n      dup2\n      mstore\n        /* \"#utility.yul\":148:150   */\n      0x20\n        /* \"#utility.yul\":133:151   */\n      add\n        /* \"contracts/LearnPayable.sol\":369:466  function getBalance() public view returns (uint256) {... */\n      mload(0x40)\n      dup1\n      swap2\n      sub\n      swap1\n      return\n        /* \"contracts/LearnPayable.sol\":161:337  function buyPlant() public payable returns (uint256) {... */\n    tag_3:\n      tag_6\n      tag_11\n      jump\t// in\n        /* \"contracts/LearnPayable.sol\":86:113  uint256 public plantCounter */\n    tag_4:\n      callvalue\n      dup1\n      iszero\n      tag_13\n      jumpi\n      revert(0x00, 0x00)\n    tag_13:\n      pop\n      tag_6\n      sload(0x00)\n      dup2\n      jump\n        /* \"contracts/LearnPayable.sol\":161:337  function buyPlant() public payable returns (uint256) {... */\n    tag_11:\n        /* \"contracts/LearnPayable.sol\":205:212  uint256 */\n      0x00\n        /* \"contracts/LearnPayable.sol\":245:256  0.001 ether */\n      0x038d7ea4c68000\n        /* \"contracts/LearnPayable.sol\":232:241  msg.value */\n      callvalue\n        /* \"contracts/LearnPayable.sol\":232:256  msg.value >= 0.001 ether */\n      lt\n      iszero\n        /* \"contracts/LearnPayable.sol\":224:276  require(msg.value >= 0.001 ether, \"Perlu 0.001 ETH\") */\n      tag_19\n      jumpi\n      mload(0x40)\n      shl(0xe5, 0x461bcd)\n      dup2\n      mstore\n        /* \"#utility.yul\":398:400   */\n      0x20\n        /* \"contracts/LearnPayable.sol\":224:276  require(msg.value >= 0.001 ether, \"Perlu 0.001 ETH\") */\n      0x04\n      dup3\n      add\n        /* \"#utility.yul\":380:401   */\n      mstore\n        /* \"#utility.yul\":437:439   */\n      0x0f\n        /* \"#utility.yul\":417:435   */\n      0x24\n      dup3\n      add\n        /* \"#utility.yul\":410:440   */\n      mstore\n      shl(0x8b, 0x0a0cae4d8ea40605c606062408aa89)\n        /* \"#utility.yul\":456:474   */\n      0x44\n      dup3\n      add\n        /* \"#utility.yul\":449:494   */\n      mstore\n        /* \"#utility.yul\":511:529   */\n      0x64\n      add\n        /* \"contracts/LearnPayable.sol\":224:276  require(msg.value >= 0.001 ether, \"Perlu 0.001 ETH\") */\n      mload(0x40)\n      dup1\n      swap2\n      sub\n      swap1\n      revert\n    tag_19:\n        /* \"contracts/LearnPayable.sol\":287:299  plantCounter */\n      0x00\n        /* \"contracts/LearnPayable.sol\":287:301  plantCounter++ */\n      dup1\n      sload\n      swap1\n        /* \"contracts/LearnPayable.sol\":287:299  plantCounter */\n      dup1\n        /* \"contracts/LearnPayable.sol\":287:301  plantCounter++ */\n      tag_22\n      dup4\n      tag_23\n      jump\t// in\n    tag_22:\n      swap2\n      swap1\n      pop\n      sstore\n      pop\n        /* \"contracts/LearnPayable.sol\":318:330  plantCounter */\n      sload(0x00)\n        /* \"contracts/LearnPayable.sol\":311:330  return plantCounter */\n      swap1\n      pop\n        /* \"contracts/LearnPayable.sol\":161:337  function buyPlant() public payable returns (uint256) {... */\n      swap1\n      jump\t// out\n        /* \"#utility.yul\":540:772   */\n    tag_23:\n        /* \"#utility.yul\":579:582   */\n      0x00\n        /* \"#utility.yul\":600:617   */\n      0x01\n      dup3\n      add\n        /* \"#utility.yul\":597:737   */\n      tag_28\n      jumpi\n        /* \"#utility.yul\":659:669   */\n      0x4e487b71\n        /* \"#utility.yul\":654:657   */\n      0xe0\n        /* \"#utility.yul\":650:670   */\n      shl\n        /* \"#utility.yul\":647:648   */\n      0x00\n        /* \"#utility.yul\":640:671   */\n      mstore\n        /* \"#utility.yul\":694:698   */\n      0x11\n        /* \"#utility.yul\":691:692   */\n      0x04\n        /* \"#utility.yul\":684:699   */\n      mstore\n        /* \"#utility.yul\":722:726   */\n      0x24\n        /* \"#utility.yul\":719:720   */\n      0x00\n        /* \"#utility.yul\":712:727   */\n      revert\n        /* \"#utility.yul\":597:737   */\n    tag_28:\n      pop\n        /* \"#utility.yul\":764:765   */\n      0x01\n        /* \"#utility.yul\":753:766   */\n      add\n      swap1\n        /* \"#utility.yul\":540:772   */\n      jump\t// out\n\n    auxdata: 0xa2646970667358221220935eae042e7f11c280b06dbca030c4956d41ba7bcfb3f29acd69167294e0565364736f6c634300081e0033\n}\n",
				"bytecode": {
					"linkReferences": {},
					"object": "6080604052348015600e575f5ffd5b506101288061001c5f395ff3fe608060405260043610602f575f3560e01c806312065fe014603357806331fe915e1460525780639c471749146058575b5f5ffd5b348015603d575f5ffd5b50475b60405190815260200160405180910390f35b6040606a565b3480156062575f5ffd5b5060405f5481565b5f66038d7ea4c6800034101560b75760405162461bcd60e51b815260206004820152600f60248201526e0a0cae4d8ea40605c606062408aa89608b1b604482015260640160405180910390fd5b5f8054908060c38360cf565b91905055505f54905090565b5f6001820160eb57634e487b7160e01b5f52601160045260245ffd5b506001019056fea2646970667358221220935eae042e7f11c280b06dbca030c4956d41ba7bcfb3f29acd69167294e0565364736f6c634300081e0033",
					"opcodes": "PUSH1 0x80 PUSH1 0x40 MSTORE CALLVALUE DUP1 ISZERO PUSH1 0xE JUMPI PUSH0 PUSH0 REVERT JUMPDEST POP PUSH2 0x128 DUP1 PUSH2 0x1C PUSH0 CODECOPY PUSH0 RETURN INVALID PUSH1 0x80 PUSH1 0x40 MSTORE PUSH1 0x4 CALLDATASIZE LT PUSH1 0x2F JUMPI PUSH0 CALLDATALOAD PUSH1 0xE0 SHR DUP1 PUSH4 0x12065FE0 EQ PUSH1 0x33 JUMPI DUP1 PUSH4 0x31FE915E EQ PUSH1 0x52 JUMPI DUP1 PUSH4 0x9C471749 EQ PUSH1 0x58 JUMPI JUMPDEST PUSH0 PUSH0 REVERT JUMPDEST CALLVALUE DUP1 ISZERO PUSH1 0x3D JUMPI PUSH0 PUSH0 REVERT JUMPDEST POP SELFBALANCE JUMPDEST PUSH1 0x40 MLOAD SWAP1 DUP2 MSTORE PUSH1 0x20 ADD PUSH1 0x40 MLOAD DUP1 SWAP2 SUB SWAP1 RETURN JUMPDEST PUSH1 0x40 PUSH1 0x6A JUMP JUMPDEST CALLVALUE DUP1 ISZERO PUSH1 0x62 JUMPI PUSH0 PUSH0 REVERT JUMPDEST POP PUSH1 0x40 PUSH0 SLOAD DUP2 JUMP JUMPDEST PUSH0 PUSH7 0x38D7EA4C68000 CALLVALUE LT ISZERO PUSH1 0xB7 JUMPI PUSH1 0x40 MLOAD PUSH3 0x461BCD PUSH1 0xE5 SHL DUP2 MSTORE PUSH1 0x20 PUSH1 0x4 DUP3 ADD MSTORE PUSH1 0xF PUSH1 0x24 DUP3 ADD MSTORE PUSH15 0xA0CAE4D8EA40605C606062408AA89 PUSH1 0x8B SHL PUSH1 0x44 DUP3 ADD MSTORE PUSH1 0x64 ADD PUSH1 0x40 MLOAD DUP1 SWAP2 SUB SWAP1 REVERT JUMPDEST PUSH0 DUP1 SLOAD SWAP1 DUP1 PUSH1 0xC3 DUP4 PUSH1 0xCF JUMP JUMPDEST SWAP2 SWAP1 POP SSTORE POP PUSH0 SLOAD SWAP1 POP SWAP1 JUMP JUMPDEST PUSH0 PUSH1 0x1 DUP3 ADD PUSH1 0xEB JUMPI PUSH4 0x4E487B71 PUSH1 0xE0 SHL PUSH0 MSTORE PUSH1 0x11 PUSH1 0x4 MSTORE PUSH1 0x24 PUSH0 REVERT JUMPDEST POP PUSH1 0x1 ADD SWAP1 JUMP INVALID LOG2 PUSH5 0x6970667358 0x22 SLT KECCAK256 SWAP4 MCOPY 0xAE DIV 0x2E PUSH32 0x11C280B06DBCA030C4956D41BA7BCFB3F29ACD69167294E0565364736F6C6343 STOP ADDMOD 0x1E STOP CALLER "
				},
				"gasEstimates": {
					"creation": {
						"codeDepositCost": "59200",
						"executionCost": "109",
						"totalCost": "59309"
					},
					"external": {
						"buyPlant()": "26585",
						"getBalance()": "148",
						"plantCounter()": "2303"
					}
				},
				"methodIdentifiers": {
					"buyPlant()": "31fe915e",
					"getBalance()": "12065fe0",
					"plantCounter()": "9c471749"
				}
			},
			"storageLayout": {
				"storage": [
					{
						"astId": 3,
						"contract": "contracts/LearnPayable.sol:LearnPayable",
						"label": "plantCounter",
						"offset": 0,
						"slot": "0",
						"type": "t_uint256"
					}
				],
				"types": {
					"t_uint256": {
						"encoding": "inplace",
						"label": "uint256",
						"numberOfBytes": "32"
					}
				}
			},
			"userdoc": {
				"kind": "user",
				"methods": {},
				"version": 1
			}
		}
	}
}