{
	"contracts/LearnRequire.sol": {
		"LearnRequire": {
			"abi": [
				{
					"inputs": [
						{
							"internalType": "uint256",
							"name": "_plantId",
							"type": "uint256"
						}
					],
					"name": "addPlant",
					"outputs": [],
					"stateMutability": "nonpayable",
					"type": "function"
				},
				{
					"inputs": [
						{
							"internalType": "uint256",
							"name": "",
							"type": "uint256"
						}
					],
					"name": "plantOwner",
					"outputs": [
						{
							"internalType": "address",
							"name": "",
							"type": "address"
						}
					],
					"stateMutability": "view",
					"type": "function"
				},
				{
					"inputs": [
						{
							"internalType": "uint256",
							"name": "",
							"type": "uint256"
						}
					],
					"name": "waterLevel",
					"outputs": [
						{
							"internalType": "uint8",
							"name": "",
							"type": "uint8"
						}
					],
					"stateMutability": "view",
					"type": "function"
				},
				{
					"inputs": [
						{
							"internalType": "uint256",
							"name": "_plantId",
							"type": "uint256"
						}
					],
					"name": "waterPlant",
					"outputs": [],
					"stateMutability": "nonpayable",
					"type": "function"
				}
			],
			"devdoc": {
				"kind": "dev",
				"methods": {},
				"version": 1
			},
			"evm": {
				"assembly": "    /* \"contracts/LearnRequire.sol\":58:542  contract LearnRequire {... */\n  mstore(0x40, 0x80)\n  callvalue\n  dup1\n  iszero\n  tag_1\n  jumpi\n  revert(0x00, 0x00)\ntag_1:\n  pop\n  dataSize(sub_0)\n  dup1\n  dataOffset(sub_0)\n  0x00\n  codecopy\n  0x00\n  return\nstop\n\nsub_0: assembly {\n        /* \"contracts/LearnRequire.sol\":58:542  contract LearnRequire {... */\n      mstore(0x40, 0x80)\n      callvalue\n      dup1\n      iszero\n      tag_1\n      jumpi\n      revert(0x00, 0x00)\n    tag_1:\n      pop\n      jumpi(tag_2, lt(calldatasize, 0x04))\n      shr(0xe0, calldataload(0x00))\n      dup1\n      0x13258069\n      eq\n      tag_3\n      jumpi\n      dup1\n      0x3a532937\n      eq\n      tag_4\n      jumpi\n      dup1\n      0x83851b72\n      eq\n      tag_5\n      jumpi\n      dup1\n      0x9886bcfa\n      eq\n      tag_6\n      jumpi\n    tag_2:\n      revert(0x00, 0x00)\n        /* \"contracts/LearnRequire.sol\":187:316  function addPlant(uint256 _plantId) public {... */\n    tag_3:\n      tag_7\n      tag_8\n      calldatasize\n      0x04\n      tag_9\n      jump\t// in\n    tag_8:\n        /* \"contracts/LearnRequire.sol\":240:250  plantOwner */\n      0x00\n        /* \"contracts/LearnRequire.sol\":240:260  plantOwner[_plantId] */\n      swap1\n      dup2\n      mstore\n      0x20\n      dup2\n      dup2\n      mstore\n      0x40\n      dup1\n      dup4\n      keccak256\n        /* \"contracts/LearnRequire.sol\":240:273  plantOwner[_plantId] = msg.sender */\n      dup1\n      sload\n      not(sub(shl(0xa0, 0x01), 0x01))\n      and\n        /* \"contracts/LearnRequire.sol\":263:273  msg.sender */\n      caller\n        /* \"contracts/LearnRequire.sol\":240:273  plantOwner[_plantId] = msg.sender */\n      or\n      swap1\n      sstore\n      0x01\n        /* \"contracts/LearnRequire.sol\":283:303  waterLevel[_plantId] */\n      swap1\n      swap2\n      mstore\n      swap1\n      keccak256\n        /* \"contracts/LearnRequire.sol\":283:309  waterLevel[_plantId] = 100 */\n      dup1\n      sload\n      not(0xff)\n      and\n        /* \"contracts/LearnRequire.sol\":306:309  100 */\n      0x64\n        /* \"contracts/LearnRequire.sol\":283:309  waterLevel[_plantId] = 100 */\n      or\n      swap1\n      sstore\n        /* \"contracts/LearnRequire.sol\":187:316  function addPlant(uint256 _plantId) public {... */\n      jump\n    tag_7:\n      stop\n        /* \"contracts/LearnRequire.sol\":86:131  mapping(uint256 => address) public plantOwner */\n    tag_4:\n      tag_11\n      tag_12\n      calldatasize\n      0x04\n      tag_9\n      jump\t// in\n    tag_12:\n      0x00\n      0x20\n      dup2\n      swap1\n      mstore\n      swap1\n      dup2\n      mstore\n      0x40\n      swap1\n      keccak256\n      sload\n      sub(shl(0xa0, 0x01), 0x01)\n      and\n      dup2\n      jump\n    tag_11:\n      mload(0x40)\n      sub(shl(0xa0, 0x01), 0x01)\n        /* \"#utility.yul\":363:395   */\n      swap1\n      swap2\n      and\n        /* \"#utility.yul\":345:396   */\n      dup2\n      mstore\n        /* \"#utility.yul\":333:335   */\n      0x20\n        /* \"#utility.yul\":318:336   */\n      add\n        /* \"contracts/LearnRequire.sol\":86:131  mapping(uint256 => address) public plantOwner */\n    tag_14:\n      mload(0x40)\n      dup1\n      swap2\n      sub\n      swap1\n      return\n        /* \"contracts/LearnRequire.sol\":137:180  mapping(uint256 => uint8) public waterLevel */\n    tag_5:\n      tag_16\n      tag_17\n      calldatasize\n      0x04\n      tag_9\n      jump\t// in\n    tag_17:\n      mstore(0x20, 0x01)\n      0x00\n      swap1\n      dup2\n      mstore\n      0x40\n      swap1\n      keccak256\n      sload\n      0xff\n      and\n      dup2\n      jump\n    tag_16:\n      mload(0x40)\n        /* \"#utility.yul\":579:583   */\n      0xff\n        /* \"#utility.yul\":567:584   */\n      swap1\n      swap2\n      and\n        /* \"#utility.yul\":549:585   */\n      dup2\n      mstore\n        /* \"#utility.yul\":537:539   */\n      0x20\n        /* \"#utility.yul\":522:540   */\n      add\n        /* \"contracts/LearnRequire.sol\":137:180  mapping(uint256 => uint8) public waterLevel */\n      tag_14\n        /* \"#utility.yul\":407:591   */\n      jump\n        /* \"contracts/LearnRequire.sol\":322:540  function waterPlant(uint256 _plantId) public {... */\n    tag_6:\n      tag_7\n      tag_22\n      calldatasize\n      0x04\n      tag_9\n      jump\t// in\n    tag_22:\n        /* \"contracts/LearnRequire.sol\":438:448  plantOwner */\n      0x00\n        /* \"contracts/LearnRequire.sol\":438:458  plantOwner[_plantId] */\n      dup2\n      dup2\n      mstore\n      0x20\n      dup2\n      swap1\n      mstore\n      0x40\n      swap1\n      keccak256\n      sload\n      sub(shl(0xa0, 0x01), 0x01)\n      and\n        /* \"contracts/LearnRequire.sol\":462:472  msg.sender */\n      caller\n        /* \"contracts/LearnRequire.sol\":438:472  plantOwner[_plantId] == msg.sender */\n      eq\n        /* \"contracts/LearnRequire.sol\":430:496  require(plantOwner[_plantId] == msg.sender, \"Bukan tanaman Anda!\") */\n      tag_26\n      jumpi\n      mload(0x40)\n      shl(0xe5, 0x461bcd)\n      dup2\n      mstore\n        /* \"#utility.yul\":798:800   */\n      0x20\n        /* \"contracts/LearnRequire.sol\":430:496  require(plantOwner[_plantId] == msg.sender, \"Bukan tanaman Anda!\") */\n      0x04\n      dup3\n      add\n        /* \"#utility.yul\":780:801   */\n      mstore\n        /* \"#utility.yul\":837:839   */\n      0x13\n        /* \"#utility.yul\":817:835   */\n      0x24\n      dup3\n      add\n        /* \"#utility.yul\":810:840   */\n      mstore\n      shl(0x68, 0x42756b616e2074616e616d616e20416e646121)\n        /* \"#utility.yul\":856:874   */\n      0x44\n      dup3\n      add\n        /* \"#utility.yul\":849:898   */\n      mstore\n        /* \"#utility.yul\":915:933   */\n      0x64\n      add\n        /* \"contracts/LearnRequire.sol\":430:496  require(plantOwner[_plantId] == msg.sender, \"Bukan tanaman Anda!\") */\n      mload(0x40)\n      dup1\n      swap2\n      sub\n      swap1\n      revert\n    tag_26:\n        /* \"contracts/LearnRequire.sol\":507:527  waterLevel[_plantId] */\n      0x00\n      swap1\n      dup2\n      mstore\n        /* \"contracts/LearnRequire.sol\":507:517  waterLevel */\n      0x01\n        /* \"contracts/LearnRequire.sol\":507:527  waterLevel[_plantId] */\n      0x20\n      mstore\n      0x40\n      swap1\n      keccak256\n        /* \"contracts/LearnRequire.sol\":507:533  waterLevel[_plantId] = 100 */\n      dup1\n      sload\n      not(0xff)\n      and\n        /* \"contracts/LearnRequire.sol\":530:533  100 */\n      0x64\n        /* \"contracts/LearnRequire.sol\":507:533  waterLevel[_plantId] = 100 */\n      or\n      swap1\n      sstore\n        /* \"contracts/LearnRequire.sol\":322:540  function waterPlant(uint256 _plantId) public {... */\n      jump\t// out\n        /* \"#utility.yul\":14:194   */\n    tag_9:\n        /* \"#utility.yul\":73:79   */\n      0x00\n        /* \"#utility.yul\":126:128   */\n      0x20\n        /* \"#utility.yul\":114:123   */\n      dup3\n        /* \"#utility.yul\":105:112   */\n      dup5\n        /* \"#utility.yul\":101:124   */\n      sub\n        /* \"#utility.yul\":97:129   */\n      slt\n        /* \"#utility.yul\":94:146   */\n      iszero\n      tag_31\n      jumpi\n        /* \"#utility.yul\":142:143   */\n      0x00\n        /* \"#utility.yul\":139:140   */\n      0x00\n        /* \"#utility.yul\":132:144   */\n      revert\n        /* \"#utility.yul\":94:146   */\n    tag_31:\n      pop\n        /* \"#utility.yul\":165:188   */\n      calldataload\n      swap2\n        /* \"#utility.yul\":14:194   */\n      swap1\n      pop\n      jump\t// out\n\n    auxdata: 0xa26469706673582212200d6a2f54233a678bd91a1e49d9e0883a846745972e8495fff861a882f600748864736f6c634300081e0033\n}\n",
				"bytecode": {
					"linkReferences": {},
					"object": "6080604052348015600e575f5ffd5b506101dd8061001c5f395ff3fe608060405234801561000f575f5ffd5b506004361061004a575f3560e01c8063132580691461004e5780633a5329371461009057806383851b72146100d55780639886bcfa14610109575b5f5ffd5b61008e61005c366004610190565b5f9081526020818152604080832080546001600160a01b0319163317905560019091529020805460ff19166064179055565b005b6100b861009e366004610190565b5f602081905290815260409020546001600160a01b031681565b6040516001600160a01b0390911681526020015b60405180910390f35b6100f76100e3366004610190565b60016020525f908152604090205460ff1681565b60405160ff90911681526020016100cc565b61008e610117366004610190565b5f818152602081905260409020546001600160a01b031633146101765760405162461bcd60e51b815260206004820152601360248201527242756b616e2074616e616d616e20416e64612160681b604482015260640160405180910390fd5b5f908152600160205260409020805460ff19166064179055565b5f602082840312156101a0575f5ffd5b503591905056fea26469706673582212200d6a2f54233a678bd91a1e49d9e0883a846745972e8495fff861a882f600748864736f6c634300081e0033",
					"opcodes": "PUSH1 0x80 PUSH1 0x40 MSTORE CALLVALUE DUP1 ISZERO PUSH1 0xE JUMPI PUSH0 PUSH0 REVERT JUMPDEST POP PUSH2 0x1DD DUP1 PUSH2 0x1C PUSH0 CODECOPY PUSH0 RETURN INVALID PUSH1 0x80 PUSH1 0x40 MSTORE CALLVALUE DUP1 ISZERO PUSH2 0xF JUMPI PUSH0 PUSH0 REVERT JUMPDEST POP PUSH1 0x4 CALLDATASIZE LT PUSH2 0x4A JUMPI PUSH0 CALLDATALOAD PUSH1 0xE0 SHR DUP1 PUSH4 0x13258069 EQ PUSH2 0x4E JUMPI DUP1 PUSH4 0x3A532937 EQ PUSH2 0x90 JUMPI DUP1 PUSH4 0x83851B72 EQ PUSH2 0xD5 JUMPI DUP1 PUSH4 0x9886BCFA EQ PUSH2 0x109 JUMPI JUMPDEST PUSH0 PUSH0 REVERT JUMPDEST PUSH2 0x8E PUSH2 0x5C CALLDATASIZE PUSH1 0x4 PUSH2 0x190 JUMP JUMPDEST PUSH0 SWAP1 DUP2 MSTORE PUSH1 0x20 DUP2 DUP2 MSTORE PUSH1 0x40 DUP1 DUP4 KECCAK256 DUP1 SLOAD PUSH1 0x1 PUSH1 0x1 PUSH1 0xA0 SHL SUB NOT AND CALLER OR SWAP1 SSTORE PUSH1 0x1 SWAP1 SWAP2 MSTORE SWAP1 KECCAK256 DUP1 SLOAD PUSH1 0xFF NOT AND PUSH1 0x64 OR SWAP1 SSTORE JUMP JUMPDEST STOP JUMPDEST PUSH2 0xB8 PUSH2 0x9E CALLDATASIZE PUSH1 0x4 PUSH2 0x190 JUMP JUMPDEST PUSH0 PUSH1 0x20 DUP2 SWAP1 MSTORE SWAP1 DUP2 MSTORE PUSH1 0x40 SWAP1 KECCAK256 SLOAD PUSH1 0x1 PUSH1 0x1 PUSH1 0xA0 SHL SUB AND DUP2 JUMP JUMPDEST PUSH1 0x40 MLOAD PUSH1 0x1 PUSH1 0x1 PUSH1 0xA0 SHL SUB SWAP1 SWAP2 AND DUP2 MSTORE PUSH1 0x20 ADD JUMPDEST PUSH1 0x40 MLOAD DUP1 SWAP2 SUB SWAP1 RETURN JUMPDEST PUSH2 0xF7 PUSH2 0xE3 CALLDATASIZE PUSH1 0x4 PUSH2 0x190 JUMP JUMPDEST PUSH1 0x1 PUSH1 0x20 MSTORE PUSH0 SWAP1 DUP2 MSTORE PUSH1 0x40 SWAP1 KECCAK256 SLOAD PUSH1 0xFF AND DUP2 JUMP JUMPDEST PUSH1 0x40 MLOAD PUSH1 0xFF SWAP1 SWAP2 AND DUP2 MSTORE PUSH1 0x20 ADD PUSH2 0xCC JUMP JUMPDEST PUSH2 0x8E PUSH2 0x117 CALLDATASIZE PUSH1 0x4 PUSH2 0x190 JUMP JUMPDEST PUSH0 DUP2 DUP2 MSTORE PUSH1 0x20 DUP2 SWAP1 MSTORE PUSH1 0x40 SWAP1 KECCAK256 SLOAD PUSH1 0x1 PUSH1 0x1 PUSH1 0xA0 SHL SUB AND CALLER EQ PUSH2 0x176 JUMPI PUSH1 0x40 MLOAD PUSH3 0x461BCD PUSH1 0xE5 SHL DUP2 MSTORE PUSH1 0x20 PUSH1 0x4 DUP3 ADD MSTORE PUSH1 0x13 PUSH1 0x24 DUP3 ADD MSTORE PUSH19 0x42756B616E2074616E616D616E20416E646121 PUSH1 0x68 SHL PUSH1 0x44 DUP3 ADD MSTORE PUSH1 0x64 ADD PUSH1 0x40 MLOAD DUP1 SWAP2 SUB SWAP1 REVERT JUMPDEST PUSH0 SWAP1 DUP2 MSTORE PUSH1 0x1 PUSH1 0x20 MSTORE PUSH1 0x40 SWAP1 KECCAK256 DUP1 SLOAD PUSH1 0xFF NOT AND PUSH1 0x64 OR SWAP1 SSTORE JUMP JUMPDEST PUSH0 PUSH1 0x20 DUP3 DUP5 SUB SLT ISZERO PUSH2 0x1A0 JUMPI PUSH0 PUSH0 REVERT JUMPDEST POP CALLDATALOAD SWAP2 SWAP1 POP JUMP INVALID LOG2 PUSH5 0x6970667358 0x22 SLT KECCAK256 0xD PUSH11 0x2F54233A678BD91A1E49D9 RJUMP 0x883A DUP5 PUSH8 0x45972E8495FFF861 0xA8 DUP3 0xF6 STOP PUSH21 0x8864736F6C634300081E0033000000000000000000 "
				},
				"gasEstimates": {
					"creation": {
						"codeDepositCost": "95400",
						"executionCost": "139",
						"totalCost": "95539"
					},
					"external": {
						"addPlant(uint256)": "48769",
						"plantOwner(uint256)": "2466",
						"waterLevel(uint256)": "2472",
						"waterPlant(uint256)": "26748"
					}
				},
				"methodIdentifiers": {
					"addPlant(uint256)": "13258069",
					"plantOwner(uint256)": "3a532937",
					"waterLevel(uint256)": "83851b72",
					"waterPlant(uint256)": "9886bcfa"
				}
			},
			"storageLayout": {
				"storage": [
					{
						"astId": 5,
						"contract": "contracts/LearnRequire.sol:LearnRequire",
						"label": "plantOwner",
						"offset": 0,
						"slot": "0",
						"type": "t_mapping(t_uint256,t_address)"
					},
					{
						"astId": 9,
						"contract": "contracts/LearnRequire.sol:LearnRequire",
						"label": "waterLevel",
						"offset": 0,
						"slot": "1",
						"type": "t_mapping(t_uint256,t_uint8)"
					}
				],
				"types": {
					"t_address": {
						"encoding": "inplace",
						"label": "address",
						"numberOfBytes": "20"
					},
					"t_mapping(t_uint256,t_address)": {
						"encoding": "mapping",
						"key": "t_uint256",
						"label": "mapping(uint256 => address)",
						"numberOfBytes": "32",
						"value": "t_address"
					},
					"t_mapping(t_uint256,t_uint8)": {
						"encoding": "mapping",
						"key": "t_uint256",
						"label": "mapping(uint256 => uint8)",
						"numberOfBytes": "32",
						"value": "t_uint8"
					},
					"t_uint256": {
						"encoding": "inplace",
						"label": "uint256",
						"numberOfBytes": "32"
					},
					"t_uint8": {
						"encoding": "inplace",
						"label": "uint8",
						"numberOfBytes": "1"
					}
				}
			},
			"userdoc": {
				"kind": "user",
				"methods": {},
				"version": 1
			}
		}
	}
}