{
	"contracts/SimplePlant.sol": {
		"SImplePlant": {
			"abi": [
				{
					"inputs": [],
					"stateMutability": "nonpayable",
					"type": "constructor"
				},
				{
					"inputs": [],
					"name": "getAge",
					"outputs": [
						{
							"internalType": "uint256",
							"name": "",
							"type": "uint256"
						}
					],
					"stateMutability": "view",
					"type": "function"
				},
				{
					"inputs": [],
					"name": "isAlive",
					"outputs": [
						{
							"internalType": "bool",
							"name": "",
							"type": "bool"
						}
					],
					"stateMutability": "view",
					"type": "function"
				},
				{
					"inputs": [],
					"name": "owner",
					"outputs": [
						{
							"internalType": "address",
							"name": "",
							"type": "address"
						}
					],
					"stateMutability": "view",
					"type": "function"
				},
				{
					"inputs": [],
					"name": "plantName",
					"outputs": [
						{
							"internalType": "string",
							"name": "",
							"type": "string"
						}
					],
					"stateMutability": "view",
					"type": "function"
				},
				{
					"inputs": [],
					"name": "plantedTime",
					"outputs": [
						{
							"internalType": "uint256",
							"name": "",
							"type": "uint256"
						}
					],
					"stateMutability": "view",
					"type": "function"
				},
				{
					"inputs": [],
					"name": "water",
					"outputs": [],
					"stateMutability": "nonpayable",
					"type": "function"
				},
				{
					"inputs": [],
					"name": "waterLevel",
					"outputs": [
						{
							"internalType": "uint256",
							"name": "",
							"type": "uint256"
						}
					],
					"stateMutability": "view",
					"type": "function"
				}
			],
			"devdoc": {
				"kind": "dev",
				"methods": {},
				"version": 1
			},
			"evm": {
				"assembly": "    /* \"contracts/SimplePlant.sol\":26:532  contract SImplePlant {... */\n  mstore(0x40, 0x80)\n    /* \"contracts/SimplePlant.sol\":197:364  constructor () {... */\n  callvalue\n  dup1\n  iszero\n  tag_1\n  jumpi\n  revert(0x00, 0x00)\ntag_1:\n  pop\n    /* \"contracts/SimplePlant.sol\":222:240  plantName = \"Rose\" */\n  0x40\n  dup1\n  mload\n  dup1\n  dup3\n  add\n  swap1\n  swap2\n  mstore\n  0x04\n  dup2\n  mstore\n  shl(0xe0, 0x526f7365)\n  0x20\n  dup3\n  add\n  mstore\n  0x00\n  swap1\n  tag_4\n  swap1\n  dup3\n  tag_5\n  jump\t// in\ntag_4:\n  pop\n    /* \"contracts/SimplePlant.sol\":263:266  100 */\n  0x64\n    /* \"contracts/SimplePlant.sol\":250:260  waterLevel */\n  0x01\n    /* \"contracts/SimplePlant.sol\":250:266  waterLevel = 100 */\n  swap1\n  dup2\n  sstore\n    /* \"contracts/SimplePlant.sol\":276:283  isAlive */\n  0x02\n    /* \"contracts/SimplePlant.sol\":276:290  isAlive = true */\n  dup1\n  sload\n  not(sub(shl(0xa8, 0x01), 0x01))\n    /* \"contracts/SimplePlant.sol\":300:318  owner = msg.sender */\n  and\n    /* \"contracts/SimplePlant.sol\":276:290  isAlive = true */\n  0x0100\n    /* \"contracts/SimplePlant.sol\":308:318  msg.sender */\n  caller\n    /* \"contracts/SimplePlant.sol\":300:318  owner = msg.sender */\n  mul\n  or\n  swap1\n  swap2\n  or\n  swap1\n  sstore\n    /* \"contracts/SimplePlant.sol\":342:357  block.timestamp */\n  timestamp\n    /* \"contracts/SimplePlant.sol\":328:339  plantedTime */\n  0x03\n    /* \"contracts/SimplePlant.sol\":328:357  plantedTime = block.timestamp */\n  sstore\n    /* \"contracts/SimplePlant.sol\":26:532  contract SImplePlant {... */\n  jump(tag_12)\n    /* \"#utility.yul\":14:141   */\ntag_7:\n    /* \"#utility.yul\":75:85   */\n  0x4e487b71\n    /* \"#utility.yul\":70:73   */\n  0xe0\n    /* \"#utility.yul\":66:86   */\n  shl\n    /* \"#utility.yul\":63:64   */\n  0x00\n    /* \"#utility.yul\":56:87   */\n  mstore\n    /* \"#utility.yul\":106:110   */\n  0x41\n    /* \"#utility.yul\":103:104   */\n  0x04\n    /* \"#utility.yul\":96:111   */\n  mstore\n    /* \"#utility.yul\":130:134   */\n  0x24\n    /* \"#utility.yul\":127:128   */\n  0x00\n    /* \"#utility.yul\":120:135   */\n  revert\n    /* \"#utility.yul\":146:526   */\ntag_8:\n    /* \"#utility.yul\":225:226   */\n  0x01\n    /* \"#utility.yul\":221:233   */\n  dup2\n  dup2\n  shr\n  swap1\n    /* \"#utility.yul\":268:280   */\n  dup3\n  and\n  dup1\n    /* \"#utility.yul\":289:350   */\n  tag_15\n  jumpi\n    /* \"#utility.yul\":343:347   */\n  0x7f\n    /* \"#utility.yul\":335:341   */\n  dup3\n    /* \"#utility.yul\":331:348   */\n  and\n    /* \"#utility.yul\":321:348   */\n  swap2\n  pop\n    /* \"#utility.yul\":289:350   */\ntag_15:\n    /* \"#utility.yul\":396:398   */\n  0x20\n    /* \"#utility.yul\":388:394   */\n  dup3\n    /* \"#utility.yul\":385:399   */\n  lt\n    /* \"#utility.yul\":365:383   */\n  dup2\n    /* \"#utility.yul\":362:400   */\n  sub\n    /* \"#utility.yul\":359:520   */\n  tag_16\n  jumpi\n    /* \"#utility.yul\":442:452   */\n  0x4e487b71\n    /* \"#utility.yul\":437:440   */\n  0xe0\n    /* \"#utility.yul\":433:453   */\n  shl\n    /* \"#utility.yul\":430:431   */\n  0x00\n    /* \"#utility.yul\":423:454   */\n  mstore\n    /* \"#utility.yul\":477:481   */\n  0x22\n    /* \"#utility.yul\":474:475   */\n  0x04\n    /* \"#utility.yul\":467:482   */\n  mstore\n    /* \"#utility.yul\":505:509   */\n  0x24\n    /* \"#utility.yul\":502:503   */\n  0x00\n    /* \"#utility.yul\":495:510   */\n  revert\n    /* \"#utility.yul\":359:520   */\ntag_16:\n  pop\n    /* \"#utility.yul\":146:526   */\n  swap2\n  swap1\n  pop\n  jump\t// out\n    /* \"#utility.yul\":657:1175   */\ntag_10:\n    /* \"#utility.yul\":759:761   */\n  0x1f\n    /* \"#utility.yul\":754:757   */\n  dup3\n    /* \"#utility.yul\":751:762   */\n  gt\n    /* \"#utility.yul\":748:1169   */\n  iszero\n  tag_19\n  jumpi\n    /* \"#utility.yul\":795:800   */\n  dup1\n    /* \"#utility.yul\":792:793   */\n  0x00\n    /* \"#utility.yul\":785:801   */\n  mstore\n    /* \"#utility.yul\":839:843   */\n  0x20\n    /* \"#utility.yul\":836:837   */\n  0x00\n    /* \"#utility.yul\":826:844   */\n  keccak256\n    /* \"#utility.yul\":909:911   */\n  0x1f\n    /* \"#utility.yul\":897:907   */\n  dup5\n    /* \"#utility.yul\":893:912   */\n  add\n    /* \"#utility.yul\":890:891   */\n  0x05\n    /* \"#utility.yul\":886:913   */\n  shr\n    /* \"#utility.yul\":880:884   */\n  dup2\n    /* \"#utility.yul\":876:914   */\n  add\n    /* \"#utility.yul\":945:949   */\n  0x20\n    /* \"#utility.yul\":933:943   */\n  dup6\n    /* \"#utility.yul\":930:950   */\n  lt\n    /* \"#utility.yul\":927:974   */\n  iszero\n  tag_20\n  jumpi\n  pop\n    /* \"#utility.yul\":968:972   */\n  dup1\n    /* \"#utility.yul\":927:974   */\ntag_20:\n    /* \"#utility.yul\":1023:1025   */\n  0x1f\n    /* \"#utility.yul\":1018:1021   */\n  dup5\n    /* \"#utility.yul\":1014:1026   */\n  add\n    /* \"#utility.yul\":1011:1012   */\n  0x05\n    /* \"#utility.yul\":1007:1027   */\n  shr\n    /* \"#utility.yul\":1001:1005   */\n  dup3\n    /* \"#utility.yul\":997:1028   */\n  add\n    /* \"#utility.yul\":987:1028   */\n  swap2\n  pop\n    /* \"#utility.yul\":1078:1159   */\ntag_21:\n    /* \"#utility.yul\":1096:1098   */\n  dup2\n    /* \"#utility.yul\":1089:1094   */\n  dup2\n    /* \"#utility.yul\":1086:1099   */\n  lt\n    /* \"#utility.yul\":1078:1159   */\n  iszero\n  tag_23\n  jumpi\n    /* \"#utility.yul\":1155:1156   */\n  0x00\n    /* \"#utility.yul\":1141:1157   */\n  dup2\n  sstore\n    /* \"#utility.yul\":1122:1123   */\n  0x01\n    /* \"#utility.yul\":1111:1124   */\n  add\n    /* \"#utility.yul\":1078:1159   */\n  jump(tag_21)\ntag_23:\n    /* \"#utility.yul\":1082:1085   */\n  pop\n  pop\n    /* \"#utility.yul\":748:1169   */\ntag_19:\n    /* \"#utility.yul\":657:1175   */\n  pop\n  pop\n  pop\n  jump\t// out\n    /* \"#utility.yul\":1351:2650   */\ntag_5:\n    /* \"#utility.yul\":1471:1481   */\n  dup2\n  mload\n  sub(shl(0x40, 0x01), 0x01)\n    /* \"#utility.yul\":1493:1523   */\n  dup2\n  gt\n    /* \"#utility.yul\":1490:1546   */\n  iszero\n  tag_27\n  jumpi\n    /* \"#utility.yul\":1526:1544   */\n  tag_27\n  tag_7\n  jump\t// in\ntag_27:\n    /* \"#utility.yul\":1555:1652   */\n  tag_28\n    /* \"#utility.yul\":1645:1651   */\n  dup2\n    /* \"#utility.yul\":1605:1643   */\n  tag_29\n    /* \"#utility.yul\":1637:1641   */\n  dup5\n    /* \"#utility.yul\":1631:1642   */\n  sload\n    /* \"#utility.yul\":1605:1643   */\n  tag_8\n  jump\t// in\ntag_29:\n    /* \"#utility.yul\":1599:1603   */\n  dup5\n    /* \"#utility.yul\":1555:1652   */\n  tag_10\n  jump\t// in\ntag_28:\n    /* \"#utility.yul\":1701:1705   */\n  0x20\n    /* \"#utility.yul\":1732:1734   */\n  0x1f\n    /* \"#utility.yul\":1721:1735   */\n  dup3\n  gt\n    /* \"#utility.yul\":1749:1750   */\n  0x01\n    /* \"#utility.yul\":1744:2393   */\n  dup2\n  eq\n  tag_31\n  jumpi\n    /* \"#utility.yul\":2437:2438   */\n  0x00\n    /* \"#utility.yul\":2454:2460   */\n  dup4\n    /* \"#utility.yul\":2451:2540   */\n  iszero\n  tag_32\n  jumpi\n  pop\n    /* \"#utility.yul\":2506:2525   */\n  dup5\n  dup3\n  add\n    /* \"#utility.yul\":2500:2526   */\n  mload\n    /* \"#utility.yul\":2451:2540   */\ntag_32:\n  not(0x00)\n    /* \"#utility.yul\":1308:1309   */\n  0x03\n    /* \"#utility.yul\":1304:1315   */\n  dup6\n  swap1\n  shl\n    /* \"#utility.yul\":1300:1324   */\n  shr\n    /* \"#utility.yul\":1296:1325   */\n  not\n    /* \"#utility.yul\":1286:1326   */\n  and\n    /* \"#utility.yul\":1332:1333   */\n  0x01\n    /* \"#utility.yul\":1328:1339   */\n  dup5\n  swap1\n  shl\n    /* \"#utility.yul\":1283:1340   */\n  or\n    /* \"#utility.yul\":2553:2634   */\n  dup5\n  sstore\n    /* \"#utility.yul\":1714:2644   */\n  jump(tag_23)\n    /* \"#utility.yul\":1744:2393   */\ntag_31:\n    /* \"#utility.yul\":604:605   */\n  0x00\n    /* \"#utility.yul\":597:611   */\n  dup5\n  dup2\n  mstore\n    /* \"#utility.yul\":641:645   */\n  0x20\n    /* \"#utility.yul\":628:646   */\n  dup2\n  keccak256\n  not(0x1f)\n    /* \"#utility.yul\":1780:1800   */\n  dup6\n  and\n  swap2\n    /* \"#utility.yul\":1898:2120   */\ntag_35:\n    /* \"#utility.yul\":1912:1919   */\n  dup3\n    /* \"#utility.yul\":1909:1910   */\n  dup2\n    /* \"#utility.yul\":1906:1920   */\n  lt\n    /* \"#utility.yul\":1898:2120   */\n  iszero\n  tag_37\n  jumpi\n    /* \"#utility.yul\":1994:2013   */\n  dup8\n  dup6\n  add\n    /* \"#utility.yul\":1988:2014   */\n  mload\n    /* \"#utility.yul\":1973:2015   */\n  dup3\n  sstore\n    /* \"#utility.yul\":2101:2105   */\n  0x20\n    /* \"#utility.yul\":2086:2106   */\n  swap5\n  dup6\n  add\n  swap5\n    /* \"#utility.yul\":2054:2055   */\n  0x01\n    /* \"#utility.yul\":2042:2056   */\n  swap1\n  swap3\n  add\n  swap2\n    /* \"#utility.yul\":1928:1940   */\n  add\n    /* \"#utility.yul\":1898:2120   */\n  jump(tag_35)\ntag_37:\n    /* \"#utility.yul\":1902:1905   */\n  pop\n    /* \"#utility.yul\":2148:2154   */\n  dup5\n    /* \"#utility.yul\":2139:2146   */\n  dup3\n    /* \"#utility.yul\":2136:2155   */\n  lt\n    /* \"#utility.yul\":2133:2334   */\n  iszero\n  tag_38\n  jumpi\n    /* \"#utility.yul\":2209:2228   */\n  dup7\n  dup5\n  add\n    /* \"#utility.yul\":2203:2229   */\n  mload\n  not(0x00)\n    /* \"#utility.yul\":2292:2293   */\n  0x03\n    /* \"#utility.yul\":2288:2302   */\n  dup8\n  swap1\n  shl\n    /* \"#utility.yul\":2304:2307   */\n  0xf8\n    /* \"#utility.yul\":2284:2308   */\n  and\n    /* \"#utility.yul\":2280:2317   */\n  shr\n    /* \"#utility.yul\":2276:2318   */\n  not\n    /* \"#utility.yul\":2261:2319   */\n  and\n    /* \"#utility.yul\":2246:2320   */\n  dup2\n  sstore\n    /* \"#utility.yul\":2133:2334   */\ntag_38:\n  pop\n  pop\n  pop\n  pop\n    /* \"#utility.yul\":2380:2381   */\n  0x01\n    /* \"#utility.yul\":2364:2378   */\n  swap1\n  dup2\n  shl\n    /* \"#utility.yul\":2360:2382   */\n  add\n    /* \"#utility.yul\":2347:2383   */\n  swap1\n  sstore\n  pop\n    /* \"#utility.yul\":1351:2650   */\n  jump\t// out\ntag_12:\n    /* \"contracts/SimplePlant.sol\":26:532  contract SImplePlant {... */\n  dataSize(sub_0)\n  dup1\n  dataOffset(sub_0)\n  0x00\n  codecopy\n  0x00\n  return\nstop\n\nsub_0: assembly {\n        /* \"contracts/SimplePlant.sol\":26:532  contract SImplePlant {... */\n      mstore(0x40, 0x80)\n      callvalue\n      dup1\n      iszero\n      tag_1\n      jumpi\n      revert(0x00, 0x00)\n    tag_1:\n      pop\n      jumpi(tag_2, lt(calldatasize, 0x04))\n      shr(0xe0, calldataload(0x00))\n      dup1\n      0x6e516f24\n      gt\n      tag_10\n      jumpi\n      dup1\n      0x6e516f24\n      eq\n      tag_6\n      jumpi\n      dup1\n      0x8da5cb5b\n      eq\n      tag_7\n      jumpi\n      dup1\n      0x967e6e65\n      eq\n      tag_8\n      jumpi\n      dup1\n      0xffce2210\n      eq\n      tag_9\n      jumpi\n      revert(0x00, 0x00)\n    tag_10:\n      dup1\n      0x27dd3873\n      eq\n      tag_3\n      jumpi\n      dup1\n      0x4136aa35\n      eq\n      tag_4\n      jumpi\n      dup1\n      0x5f86e2b0\n      eq\n      tag_5\n      jumpi\n    tag_2:\n      revert(0x00, 0x00)\n        /* \"contracts/SimplePlant.sol\":164:190  uint256 public plantedTime */\n    tag_3:\n      tag_11\n      sload(0x03)\n      dup2\n      jump\n    tag_11:\n      mload(0x40)\n        /* \"#utility.yul\":160:185   */\n      swap1\n      dup2\n      mstore\n        /* \"#utility.yul\":148:150   */\n      0x20\n        /* \"#utility.yul\":133:151   */\n      add\n        /* \"contracts/SimplePlant.sol\":164:190  uint256 public plantedTime */\n    tag_13:\n      mload(0x40)\n      dup1\n      swap2\n      sub\n      swap1\n      return\n        /* \"contracts/SimplePlant.sol\":113:132  bool public isAlive */\n    tag_4:\n      sload(0x02)\n      tag_15\n      swap1\n      0xff\n      and\n      dup2\n      jump\n    tag_15:\n      mload(0x40)\n        /* \"#utility.yul\":361:375   */\n      swap1\n      iszero\n        /* \"#utility.yul\":354:376   */\n      iszero\n        /* \"#utility.yul\":336:377   */\n      dup2\n      mstore\n        /* \"#utility.yul\":324:326   */\n      0x20\n        /* \"#utility.yul\":309:327   */\n      add\n        /* \"contracts/SimplePlant.sol\":113:132  bool public isAlive */\n      tag_13\n        /* \"#utility.yul\":196:383   */\n      jump\n        /* \"contracts/SimplePlant.sol\":53:76  string public plantName */\n    tag_5:\n      tag_19\n      tag_20\n      jump\t// in\n    tag_19:\n      mload(0x40)\n      tag_13\n      swap2\n      swap1\n      tag_22\n      jump\t// in\n        /* \"contracts/SimplePlant.sol\":82:107  uint256 public waterLevel */\n    tag_6:\n      tag_11\n      sload(0x01)\n      dup2\n      jump\n        /* \"contracts/SimplePlant.sol\":138:158  address public owner */\n    tag_7:\n      sload(0x02)\n      tag_26\n      swap1\n      0x0100\n      swap1\n      div\n      sub(shl(0xa0, 0x01), 0x01)\n      and\n      dup2\n      jump\n    tag_26:\n      mload(0x40)\n      sub(shl(0xa0, 0x01), 0x01)\n        /* \"#utility.yul\":975:1007   */\n      swap1\n      swap2\n      and\n        /* \"#utility.yul\":957:1008   */\n      dup2\n      mstore\n        /* \"#utility.yul\":945:947   */\n      0x20\n        /* \"#utility.yul\":930:948   */\n      add\n        /* \"contracts/SimplePlant.sol\":138:158  address public owner */\n      tag_13\n        /* \"#utility.yul\":811:1014   */\n      jump\n        /* \"contracts/SimplePlant.sol\":433:530  function getAge() public view returns (uint){... */\n    tag_8:\n      tag_11\n      tag_31\n      jump\t// in\n        /* \"contracts/SimplePlant.sol\":370:427  function water() public {... */\n    tag_9:\n      tag_33\n        /* \"contracts/SimplePlant.sol\":417:420  100 */\n      0x64\n        /* \"contracts/SimplePlant.sol\":404:414  waterLevel */\n      0x01\n        /* \"contracts/SimplePlant.sol\":404:420  waterLevel = 100 */\n      sstore\n        /* \"contracts/SimplePlant.sol\":370:427  function water() public {... */\n      jump\n    tag_33:\n      stop\n        /* \"contracts/SimplePlant.sol\":53:76  string public plantName */\n    tag_20:\n      0x00\n      dup1\n      sload\n      tag_35\n      swap1\n      tag_36\n      jump\t// in\n    tag_35:\n      dup1\n      0x1f\n      add\n      0x20\n      dup1\n      swap2\n      div\n      mul\n      0x20\n      add\n      mload(0x40)\n      swap1\n      dup2\n      add\n      0x40\n      mstore\n      dup1\n      swap3\n      swap2\n      swap1\n      dup2\n      dup2\n      mstore\n      0x20\n      add\n      dup3\n      dup1\n      sload\n      tag_37\n      swap1\n      tag_36\n      jump\t// in\n    tag_37:\n      dup1\n      iszero\n      tag_38\n      jumpi\n      dup1\n      0x1f\n      lt\n      tag_39\n      jumpi\n      0x0100\n      dup1\n      dup4\n      sload\n      div\n      mul\n      dup4\n      mstore\n      swap2\n      0x20\n      add\n      swap2\n      jump(tag_38)\n    tag_39:\n      dup3\n      add\n      swap2\n      swap1\n      0x00\n      mstore\n      keccak256(0x00, 0x20)\n      swap1\n    tag_40:\n      dup2\n      sload\n      dup2\n      mstore\n      swap1\n      0x01\n      add\n      swap1\n      0x20\n      add\n      dup1\n      dup4\n      gt\n      tag_40\n      jumpi\n      dup3\n      swap1\n      sub\n      0x1f\n      and\n      dup3\n      add\n      swap2\n    tag_38:\n      pop\n      pop\n      pop\n      pop\n      pop\n      dup2\n      jump\t// out\n        /* \"contracts/SimplePlant.sol\":433:530  function getAge() public view returns (uint){... */\n    tag_31:\n        /* \"contracts/SimplePlant.sol\":472:476  uint */\n      0x00\n        /* \"contracts/SimplePlant.sol\":512:523  plantedTime */\n      sload(0x03)\n        /* \"contracts/SimplePlant.sol\":494:509  block.timestamp */\n      timestamp\n        /* \"contracts/SimplePlant.sol\":494:523  block.timestamp - plantedTime */\n      tag_42\n      swap2\n      swap1\n      tag_43\n      jump\t// in\n    tag_42:\n        /* \"contracts/SimplePlant.sol\":487:523  return block.timestamp - plantedTime */\n      swap1\n      pop\n        /* \"contracts/SimplePlant.sol\":433:530  function getAge() public view returns (uint){... */\n      swap1\n      jump\t// out\n        /* \"#utility.yul\":388:806   */\n    tag_22:\n        /* \"#utility.yul\":537:539   */\n      0x20\n        /* \"#utility.yul\":526:535   */\n      dup2\n        /* \"#utility.yul\":519:540   */\n      mstore\n        /* \"#utility.yul\":500:504   */\n      0x00\n        /* \"#utility.yul\":569:575   */\n      dup3\n        /* \"#utility.yul\":563:576   */\n      mload\n        /* \"#utility.yul\":612:618   */\n      dup1\n        /* \"#utility.yul\":607:609   */\n      0x20\n        /* \"#utility.yul\":596:605   */\n      dup5\n        /* \"#utility.yul\":592:610   */\n      add\n        /* \"#utility.yul\":585:619   */\n      mstore\n        /* \"#utility.yul\":671:677   */\n      dup1\n        /* \"#utility.yul\":666:668   */\n      0x20\n        /* \"#utility.yul\":658:664   */\n      dup6\n        /* \"#utility.yul\":654:669   */\n      add\n        /* \"#utility.yul\":649:651   */\n      0x40\n        /* \"#utility.yul\":638:647   */\n      dup6\n        /* \"#utility.yul\":634:652   */\n      add\n        /* \"#utility.yul\":628:678   */\n      mcopy\n        /* \"#utility.yul\":727:728   */\n      0x00\n        /* \"#utility.yul\":722:724   */\n      0x40\n        /* \"#utility.yul\":713:719   */\n      dup3\n        /* \"#utility.yul\":702:711   */\n      dup6\n        /* \"#utility.yul\":698:720   */\n      add\n        /* \"#utility.yul\":694:725   */\n      add\n        /* \"#utility.yul\":687:729   */\n      mstore\n        /* \"#utility.yul\":797:799   */\n      0x40\n        /* \"#utility.yul\":790:792   */\n      0x1f\n        /* \"#utility.yul\":786:793   */\n      not\n        /* \"#utility.yul\":781:783   */\n      0x1f\n        /* \"#utility.yul\":773:779   */\n      dup4\n        /* \"#utility.yul\":769:784   */\n      add\n        /* \"#utility.yul\":765:794   */\n      and\n        /* \"#utility.yul\":754:763   */\n      dup5\n        /* \"#utility.yul\":750:795   */\n      add\n        /* \"#utility.yul\":746:800   */\n      add\n        /* \"#utility.yul\":738:800   */\n      swap2\n      pop\n      pop\n        /* \"#utility.yul\":388:806   */\n      swap3\n      swap2\n      pop\n      pop\n      jump\t// out\n        /* \"#utility.yul\":1019:1399   */\n    tag_36:\n        /* \"#utility.yul\":1098:1099   */\n      0x01\n        /* \"#utility.yul\":1094:1106   */\n      dup2\n      dup2\n      shr\n      swap1\n        /* \"#utility.yul\":1141:1153   */\n      dup3\n      and\n      dup1\n        /* \"#utility.yul\":1162:1223   */\n      tag_51\n      jumpi\n        /* \"#utility.yul\":1216:1220   */\n      0x7f\n        /* \"#utility.yul\":1208:1214   */\n      dup3\n        /* \"#utility.yul\":1204:1221   */\n      and\n        /* \"#utility.yul\":1194:1221   */\n      swap2\n      pop\n        /* \"#utility.yul\":1162:1223   */\n    tag_51:\n        /* \"#utility.yul\":1269:1271   */\n      0x20\n        /* \"#utility.yul\":1261:1267   */\n      dup3\n        /* \"#utility.yul\":1258:1272   */\n      lt\n        /* \"#utility.yul\":1238:1256   */\n      dup2\n        /* \"#utility.yul\":1235:1273   */\n      sub\n        /* \"#utility.yul\":1232:1393   */\n      tag_52\n      jumpi\n        /* \"#utility.yul\":1315:1325   */\n      0x4e487b71\n        /* \"#utility.yul\":1310:1313   */\n      0xe0\n        /* \"#utility.yul\":1306:1326   */\n      shl\n        /* \"#utility.yul\":1303:1304   */\n      0x00\n        /* \"#utility.yul\":1296:1327   */\n      mstore\n        /* \"#utility.yul\":1350:1354   */\n      0x22\n        /* \"#utility.yul\":1347:1348   */\n      0x04\n        /* \"#utility.yul\":1340:1355   */\n      mstore\n        /* \"#utility.yul\":1378:1382   */\n      0x24\n        /* \"#utility.yul\":1375:1376   */\n      0x00\n        /* \"#utility.yul\":1368:1383   */\n      revert\n        /* \"#utility.yul\":1232:1393   */\n    tag_52:\n      pop\n        /* \"#utility.yul\":1019:1399   */\n      swap2\n      swap1\n      pop\n      jump\t// out\n        /* \"#utility.yul\":1404:1629   */\n    tag_43:\n        /* \"#utility.yul\":1471:1480   */\n      dup2\n      dup2\n      sub\n        /* \"#utility.yul\":1492:1503   */\n      dup2\n      dup2\n      gt\n        /* \"#utility.yul\":1489:1623   */\n      iszero\n      tag_54\n      jumpi\n        /* \"#utility.yul\":1545:1555   */\n      0x4e487b71\n        /* \"#utility.yul\":1540:1543   */\n      0xe0\n        /* \"#utility.yul\":1536:1556   */\n      shl\n        /* \"#utility.yul\":1533:1534   */\n      0x00\n        /* \"#utility.yul\":1526:1557   */\n      mstore\n        /* \"#utility.yul\":1580:1584   */\n      0x11\n        /* \"#utility.yul\":1577:1578   */\n      0x04\n        /* \"#utility.yul\":1570:1585   */\n      mstore\n        /* \"#utility.yul\":1608:1612   */\n      0x24\n        /* \"#utility.yul\":1605:1606   */\n      0x00\n        /* \"#utility.yul\":1598:1613   */\n      revert\n        /* \"#utility.yul\":1489:1623   */\n    tag_54:\n        /* \"#utility.yul\":1404:1629   */\n      swap3\n      swap2\n      pop\n      pop\n      jump\t// out\n\n    auxdata: 0xa2646970667358221220a7289e6a953bcb2d362dfe1bc5dee5cac8e184e68785024f3453d4842139472964736f6c634300081e0033\n}\n",
				"bytecode": {
					"linkReferences": {},
					"object": "608060405234801561000f575f5ffd5b50604080518082019091526004815263526f736560e01b60208201525f9061003790826100f9565b5060646001908155600280546001600160a81b0319166101003302179091179055426003556101b3565b634e487b7160e01b5f52604160045260245ffd5b600181811c9082168061008957607f821691505b6020821081036100a757634e487b7160e01b5f52602260045260245ffd5b50919050565b601f8211156100f457805f5260205f20601f840160051c810160208510156100d25750805b601f840160051c820191505b818110156100f1575f81556001016100de565b50505b505050565b81516001600160401b0381111561011257610112610061565b610126816101208454610075565b846100ad565b6020601f821160018114610158575f83156101415750848201515b5f19600385901b1c1916600184901b1784556100f1565b5f84815260208120601f198516915b828110156101875787850151825560209485019460019092019101610167565b50848210156101a457868401515f19600387901b60f8161c191681555b50505050600190811b01905550565b610280806101c05f395ff3fe608060405234801561000f575f5ffd5b506004361061007a575f3560e01c80636e516f24116100585780636e516f24146100cc5780638da5cb5b146100d5578063967e6e6514610105578063ffce22101461010d575f5ffd5b806327dd38731461007e5780634136aa351461009a5780635f86e2b0146100b7575b5f5ffd5b61008760035481565b6040519081526020015b60405180910390f35b6002546100a79060ff1681565b6040519015158152602001610091565b6100bf610119565b60405161009191906101b8565b61008760015481565b6002546100ed9061010090046001600160a01b031681565b6040516001600160a01b039091168152602001610091565b6100876101a4565b6101176064600155565b005b5f8054610125906101ed565b80601f0160208091040260200160405190810160405280929190818152602001828054610151906101ed565b801561019c5780601f106101735761010080835404028352916020019161019c565b820191905f5260205f20905b81548152906001019060200180831161017f57829003601f168201915b505050505081565b5f600354426101b39190610225565b905090565b602081525f82518060208401528060208501604085015e5f604082850101526040601f19601f83011684010191505092915050565b600181811c9082168061020157607f821691505b60208210810361021f57634e487b7160e01b5f52602260045260245ffd5b50919050565b8181038181111561024457634e487b7160e01b5f52601160045260245ffd5b9291505056fea2646970667358221220a7289e6a953bcb2d362dfe1bc5dee5cac8e184e68785024f3453d4842139472964736f6c634300081e0033",
					"opcodes": "PUSH1 0x80 PUSH1 0x40 MSTORE CALLVALUE DUP1 ISZERO PUSH2 0xF JUMPI PUSH0 PUSH0 REVERT JUMPDEST POP PUSH1 0x40 DUP1 MLOAD DUP1 DUP3 ADD SWAP1 SWAP2 MSTORE PUSH1 0x4 DUP2 MSTORE PUSH4 0x526F7365 PUSH1 0xE0 SHL PUSH1 0x20 DUP3 ADD MSTORE PUSH0 SWAP1 PUSH2 0x37 SWAP1 DUP3 PUSH2 0xF9 JUMP JUMPDEST POP PUSH1 0x64 PUSH1 0x1 SWAP1 DUP2 SSTORE PUSH1 0x2 DUP1 SLOAD PUSH1 0x1 PUSH1 0x1 PUSH1 0xA8 SHL SUB NOT AND PUSH2 0x100 CALLER MUL OR SWAP1 SWAP2 OR SWAP1 SSTORE TIMESTAMP PUSH1 0x3 SSTORE PUSH2 0x1B3 JUMP JUMPDEST PUSH4 0x4E487B71 PUSH1 0xE0 SHL PUSH0 MSTORE PUSH1 0x41 PUSH1 0x4 MSTORE PUSH1 0x24 PUSH0 REVERT JUMPDEST PUSH1 0x1 DUP2 DUP2 SHR SWAP1 DUP3 AND DUP1 PUSH2 0x89 JUMPI PUSH1 0x7F DUP3 AND SWAP2 POP JUMPDEST PUSH1 0x20 DUP3 LT DUP2 SUB PUSH2 0xA7 JUMPI PUSH4 0x4E487B71 PUSH1 0xE0 SHL PUSH0 MSTORE PUSH1 0x22 PUSH1 0x4 MSTORE PUSH1 0x24 PUSH0 REVERT JUMPDEST POP SWAP2 SWAP1 POP JUMP JUMPDEST PUSH1 0x1F DUP3 GT ISZERO PUSH2 0xF4 JUMPI DUP1 PUSH0 MSTORE PUSH1 0x20 PUSH0 KECCAK256 PUSH1 0x1F DUP5 ADD PUSH1 0x5 SHR DUP2 ADD PUSH1 0x20 DUP6 LT ISZERO PUSH2 0xD2 JUMPI POP DUP1 JUMPDEST PUSH1 0x1F DUP5 ADD PUSH1 0x5 SHR DUP3 ADD SWAP2 POP JUMPDEST DUP2 DUP2 LT ISZERO PUSH2 0xF1 JUMPI PUSH0 DUP2 SSTORE PUSH1 0x1 ADD PUSH2 0xDE JUMP JUMPDEST POP POP JUMPDEST POP POP POP JUMP JUMPDEST DUP2 MLOAD PUSH1 0x1 PUSH1 0x1 PUSH1 0x40 SHL SUB DUP2 GT ISZERO PUSH2 0x112 JUMPI PUSH2 0x112 PUSH2 0x61 JUMP JUMPDEST PUSH2 0x126 DUP2 PUSH2 0x120 DUP5 SLOAD PUSH2 0x75 JUMP JUMPDEST DUP5 PUSH2 0xAD JUMP JUMPDEST PUSH1 0x20 PUSH1 0x1F DUP3 GT PUSH1 0x1 DUP2 EQ PUSH2 0x158 JUMPI PUSH0 DUP4 ISZERO PUSH2 0x141 JUMPI POP DUP5 DUP3 ADD MLOAD JUMPDEST PUSH0 NOT PUSH1 0x3 DUP6 SWAP1 SHL SHR NOT AND PUSH1 0x1 DUP5 SWAP1 SHL OR DUP5 SSTORE PUSH2 0xF1 JUMP JUMPDEST PUSH0 DUP5 DUP2 MSTORE PUSH1 0x20 DUP2 KECCAK256 PUSH1 0x1F NOT DUP6 AND SWAP2 JUMPDEST DUP3 DUP2 LT ISZERO PUSH2 0x187 JUMPI DUP8 DUP6 ADD MLOAD DUP3 SSTORE PUSH1 0x20 SWAP5 DUP6 ADD SWAP5 PUSH1 0x1 SWAP1 SWAP3 ADD SWAP2 ADD PUSH2 0x167 JUMP JUMPDEST POP DUP5 DUP3 LT ISZERO PUSH2 0x1A4 JUMPI DUP7 DUP5 ADD MLOAD PUSH0 NOT PUSH1 0x3 DUP8 SWAP1 SHL PUSH1 0xF8 AND SHR NOT AND DUP2 SSTORE JUMPDEST POP POP POP POP PUSH1 0x1 SWAP1 DUP2 SHL ADD SWAP1 SSTORE POP JUMP JUMPDEST PUSH2 0x280 DUP1 PUSH2 0x1C0 PUSH0 CODECOPY PUSH0 RETURN INVALID PUSH1 0x80 PUSH1 0x40 MSTORE CALLVALUE DUP1 ISZERO PUSH2 0xF JUMPI PUSH0 PUSH0 REVERT JUMPDEST POP PUSH1 0x4 CALLDATASIZE LT PUSH2 0x7A JUMPI PUSH0 CALLDATALOAD PUSH1 0xE0 SHR DUP1 PUSH4 0x6E516F24 GT PUSH2 0x58 JUMPI DUP1 PUSH4 0x6E516F24 EQ PUSH2 0xCC JUMPI DUP1 PUSH4 0x8DA5CB5B EQ PUSH2 0xD5 JUMPI DUP1 PUSH4 0x967E6E65 EQ PUSH2 0x105 JUMPI DUP1 PUSH4 0xFFCE2210 EQ PUSH2 0x10D JUMPI PUSH0 PUSH0 REVERT JUMPDEST DUP1 PUSH4 0x27DD3873 EQ PUSH2 0x7E JUMPI DUP1 PUSH4 0x4136AA35 EQ PUSH2 0x9A JUMPI DUP1 PUSH4 0x5F86E2B0 EQ PUSH2 0xB7 JUMPI JUMPDEST PUSH0 PUSH0 REVERT JUMPDEST PUSH2 0x87 PUSH1 0x3 SLOAD DUP2 JUMP JUMPDEST PUSH1 0x40 MLOAD SWAP1 DUP2 MSTORE PUSH1 0x20 ADD JUMPDEST PUSH1 0x40 MLOAD DUP1 SWAP2 SUB SWAP1 RETURN JUMPDEST PUSH1 0x2 SLOAD PUSH2 0xA7 SWAP1 PUSH1 0xFF AND DUP2 JUMP JUMPDEST PUSH1 0x40 MLOAD SWAP1 ISZERO ISZERO DUP2 MSTORE PUSH1 0x20 ADD PUSH2 0x91 JUMP JUMPDEST PUSH2 0xBF PUSH2 0x119 JUMP JUMPDEST PUSH1 0x40 MLOAD PUSH2 0x91 SWAP2 SWAP1 PUSH2 0x1B8 JUMP JUMPDEST PUSH2 0x87 PUSH1 0x1 SLOAD DUP2 JUMP JUMPDEST PUSH1 0x2 SLOAD PUSH2 0xED SWAP1 PUSH2 0x100 SWAP1 DIV PUSH1 0x1 PUSH1 0x1 PUSH1 0xA0 SHL SUB AND DUP2 JUMP JUMPDEST PUSH1 0x40 MLOAD PUSH1 0x1 PUSH1 0x1 PUSH1 0xA0 SHL SUB SWAP1 SWAP2 AND DUP2 MSTORE PUSH1 0x20 ADD PUSH2 0x91 JUMP JUMPDEST PUSH2 0x87 PUSH2 0x1A4 JUMP JUMPDEST PUSH2 0x117 PUSH1 0x64 PUSH1 0x1 SSTORE JUMP JUMPDEST STOP JUMPDEST PUSH0 DUP1 SLOAD PUSH2 0x125 SWAP1 PUSH2 0x1ED JUMP JUMPDEST DUP1 PUSH1 0x1F ADD PUSH1 0x20 DUP1 SWAP2 DIV MUL PUSH1 0x20 ADD PUSH1 0x40 MLOAD SWAP1 DUP2 ADD PUSH1 0x40 MSTORE DUP1 SWAP3 SWAP2 SWAP1 DUP2 DUP2 MSTORE PUSH1 0x20 ADD DUP3 DUP1 SLOAD PUSH2 0x151 SWAP1 PUSH2 0x1ED JUMP JUMPDEST DUP1 ISZERO PUSH2 0x19C JUMPI DUP1 PUSH1 0x1F LT PUSH2 0x173 JUMPI PUSH2 0x100 DUP1 DUP4 SLOAD DIV MUL DUP4 MSTORE SWAP2 PUSH1 0x20 ADD SWAP2 PUSH2 0x19C JUMP JUMPDEST DUP3 ADD SWAP2 SWAP1 PUSH0 MSTORE PUSH1 0x20 PUSH0 KECCAK256 SWAP1 JUMPDEST DUP2 SLOAD DUP2 MSTORE SWAP1 PUSH1 0x1 ADD SWAP1 PUSH1 0x20 ADD DUP1 DUP4 GT PUSH2 0x17F JUMPI DUP3 SWAP1 SUB PUSH1 0x1F AND DUP3 ADD SWAP2 JUMPDEST POP POP POP POP POP DUP2 JUMP JUMPDEST PUSH0 PUSH1 0x3 SLOAD TIMESTAMP PUSH2 0x1B3 SWAP2 SWAP1 PUSH2 0x225 JUMP JUMPDEST SWAP1 POP SWAP1 JUMP JUMPDEST PUSH1 0x20 DUP2 MSTORE PUSH0 DUP3 MLOAD DUP1 PUSH1 0x20 DUP5 ADD MSTORE DUP1 PUSH1 0x20 DUP6 ADD PUSH1 0x40 DUP6 ADD MCOPY PUSH0 PUSH1 0x40 DUP3 DUP6 ADD ADD MSTORE PUSH1 0x40 PUSH1 0x1F NOT PUSH1 0x1F DUP4 ADD AND DUP5 ADD ADD SWAP2 POP POP SWAP3 SWAP2 POP POP JUMP JUMPDEST PUSH1 0x1 DUP2 DUP2 SHR SWAP1 DUP3 AND DUP1 PUSH2 0x201 JUMPI PUSH1 0x7F DUP3 AND SWAP2 POP JUMPDEST PUSH1 0x20 DUP3 LT DUP2 SUB PUSH2 0x21F JUMPI PUSH4 0x4E487B71 PUSH1 0xE0 SHL PUSH0 MSTORE PUSH1 0x22 PUSH1 0x4 MSTORE PUSH1 0x24 PUSH0 REVERT JUMPDEST POP SWAP2 SWAP1 POP JUMP JUMPDEST DUP2 DUP2 SUB DUP2 DUP2 GT ISZERO PUSH2 0x244 JUMPI PUSH4 0x4E487B71 PUSH1 0xE0 SHL PUSH0 MSTORE PUSH1 0x11 PUSH1 0x4 MSTORE PUSH1 0x24 PUSH0 REVERT JUMPDEST SWAP3 SWAP2 POP POP JUMP INVALID LOG2 PUSH5 0x6970667358 0x22 SLT KECCAK256 0xA7 0x28 SWAP15 PUSH11 0x953BCB2D362DFE1BC5DEE5 0xCA 0xC8 RJUMPI 0x84E6 DUP8 DUP6 MUL 0x4F CALLVALUE MSTORE8 0xD4 DUP5 0x21 CODECOPY SELFBALANCE 0x29 PUSH5 0x736F6C6343 STOP ADDMOD 0x1E STOP CALLER "
				},
				"gasEstimates": {
					"creation": {
						"codeDepositCost": "128000",
						"executionCost": "infinite",
						"totalCost": "infinite"
					},
					"external": {
						"getAge()": "2423",
						"isAlive()": "2332",
						"owner()": "2369",
						"plantName()": "infinite",
						"plantedTime()": "2284",
						"water()": "22303",
						"waterLevel()": "2283"
					}
				},
				"methodIdentifiers": {
					"getAge()": "967e6e65",
					"isAlive()": "4136aa35",
					"owner()": "8da5cb5b",
					"plantName()": "5f86e2b0",
					"plantedTime()": "27dd3873",
					"water()": "ffce2210",
					"waterLevel()": "6e516f24"
				}
			},
			"storageLayout": {
				"storage": [
					{
						"astId": 3,
						"contract": "contracts/SimplePlant.sol:SImplePlant",
						"label": "plantName",
						"offset": 0,
						"slot": "0",
						"type": "t_string_storage"
					},
					{
						"astId": 5,
						"contract": "contracts/SimplePlant.sol:SImplePlant",
						"label": "waterLevel",
						"offset": 0,
						"slot": "1",
						"type": "t_uint256"
					},
					{
						"astId": 7,
						"contract": "contracts/SimplePlant.sol:SImplePlant",
						"label": "isAlive",
						"offset": 0,
						"slot": "2",
						"type": "t_bool"
					},
					{
						"astId": 9,
						"contract": "contracts/SimplePlant.sol:SImplePlant",
						"label": "owner",
						"offset": 1,
						"slot": "2",
						"type": "t_address"
					},
					{
						"astId": 11,
						"contract": "contracts/SimplePlant.sol:SImplePlant",
						"label": "plantedTime",
						"offset": 0,
						"slot": "3",
						"type": "t_uint256"
					}
				],
				"types": {
					"t_address": {
						"encoding": "inplace",
						"label": "address",
						"numberOfBytes": "20"
					},
					"t_bool": {
						"encoding": "inplace",
						"label": "bool",
						"numberOfBytes": "1"
					},
					"t_string_storage": {
						"encoding": "bytes",
						"label": "string",
						"numberOfBytes": "32"
					},
					"t_uint256": {
						"encoding": "inplace",
						"label": "uint256",
						"numberOfBytes": "32"
					}
				}
			},
			"userdoc": {
				"kind": "user",
				"methods": {},
				"version": 1
			}
		}
	}
}