{
	"contracts/LearnSendETH.sol": {
		"LearnSendETH": {
			"abi": [
				{
					"inputs": [],
					"stateMutability": "nonpayable",
					"type": "constructor"
				},
				{
					"inputs": [],
					"name": "deposit",
					"outputs": [],
					"stateMutability": "payable",
					"type": "function"
				},
				{
					"inputs": [],
					"name": "getBalance",
					"outputs": [
						{
							"internalType": "uint256",
							"name": "",
							"type": "uint256"
						}
					],
					"stateMutability": "view",
					"type": "function"
				},
				{
					"inputs": [],
					"name": "owner",
					"outputs": [
						{
							"internalType": "address",
							"name": "",
							"type": "address"
						}
					],
					"stateMutability": "view",
					"type": "function"
				},
				{
					"inputs": [
						{
							"internalType": "address",
							"name": "_to",
							"type": "address"
						}
					],
					"name": "sendReward",
					"outputs": [],
					"stateMutability": "nonpayable",
					"type": "function"
				}
			],
			"devdoc": {
				"kind": "dev",
				"methods": {},
				"version": 1
			},
			"evm": {
				"assembly": "    /* \"contracts/LearnSendETH.sol\":58:613  contract LearnSendETH {... */\n  mstore(0x40, 0x80)\n    /* \"contracts/LearnSendETH.sol\":113:162  constructor() {... */\n  callvalue\n  dup1\n  iszero\n  tag_1\n  jumpi\n  revert(0x00, 0x00)\ntag_1:\n  pop\n    /* \"contracts/LearnSendETH.sol\":137:142  owner */\n  0x00\n    /* \"contracts/LearnSendETH.sol\":137:155  owner = msg.sender */\n  dup1\n  sload\n  not(sub(shl(0xa0, 0x01), 0x01))\n  and\n    /* \"contracts/LearnSendETH.sol\":145:155  msg.sender */\n  caller\n    /* \"contracts/LearnSendETH.sol\":137:155  owner = msg.sender */\n  or\n  swap1\n  sstore\n    /* \"contracts/LearnSendETH.sol\":58:613  contract LearnSendETH {... */\n  dataSize(sub_0)\n  dup1\n  dataOffset(sub_0)\n  0x00\n  codecopy\n  0x00\n  return\nstop\n\nsub_0: assembly {\n        /* \"contracts/LearnSendETH.sol\":58:613  contract LearnSendETH {... */\n      mstore(0x40, 0x80)\n      jumpi(tag_1, lt(calldatasize, 0x04))\n      shr(0xe0, calldataload(0x00))\n      dup1\n      0x12065fe0\n      eq\n      tag_2\n      jumpi\n      dup1\n      0x8da5cb5b\n      eq\n      tag_3\n      jumpi\n      dup1\n      0x9dabff25\n      eq\n      tag_4\n      jumpi\n      dup1\n      0xd0e30db0\n      eq\n      tag_17\n      jumpi\n    tag_1:\n      revert(0x00, 0x00)\n        /* \"contracts/LearnSendETH.sol\":514:611  function getBalance() public view returns (uint256) {... */\n    tag_2:\n      callvalue\n      dup1\n      iszero\n      tag_6\n      jumpi\n      revert(0x00, 0x00)\n    tag_6:\n      pop\n      mload(0x40)\n        /* \"contracts/LearnSendETH.sol\":583:604  address(this).balance */\n      selfbalance\n        /* \"#utility.yul\":160:185   */\n      dup2\n      mstore\n        /* \"#utility.yul\":148:150   */\n      0x20\n        /* \"#utility.yul\":133:151   */\n      add\n        /* \"contracts/LearnSendETH.sol\":514:611  function getBalance() public view returns (uint256) {... */\n    tag_9:\n      mload(0x40)\n      dup1\n      swap2\n      sub\n      swap1\n      return\n        /* \"contracts/LearnSendETH.sol\":86:106  address public owner */\n    tag_3:\n      callvalue\n      dup1\n      iszero\n      tag_11\n      jumpi\n      revert(0x00, 0x00)\n    tag_11:\n      pop\n      sload(0x00)\n      tag_12\n      swap1\n      sub(shl(0xa0, 0x01), 0x01)\n      and\n      dup2\n      jump\n    tag_12:\n      mload(0x40)\n      sub(shl(0xa0, 0x01), 0x01)\n        /* \"#utility.yul\":360:392   */\n      swap1\n      swap2\n      and\n        /* \"#utility.yul\":342:393   */\n      dup2\n      mstore\n        /* \"#utility.yul\":330:332   */\n      0x20\n        /* \"#utility.yul\":315:333   */\n      add\n        /* \"contracts/LearnSendETH.sol\":86:106  address public owner */\n      tag_9\n        /* \"#utility.yul\":196:399   */\n      jump\n        /* \"contracts/LearnSendETH.sol\":258:491  function sendReward(address _to) public {... */\n    tag_4:\n      callvalue\n      dup1\n      iszero\n      tag_16\n      jumpi\n      revert(0x00, 0x00)\n    tag_16:\n      pop\n      tag_17\n      tag_18\n      calldatasize\n      0x04\n      tag_19\n      jump\t// in\n    tag_18:\n      tag_20\n      jump\t// in\n    tag_17:\n      stop\n    tag_20:\n        /* \"contracts/LearnSendETH.sol\":330:335  owner */\n      and(sub(shl(0xa0, 0x01), 0x01), sload(0x00))\n        /* \"contracts/LearnSendETH.sol\":316:326  msg.sender */\n      caller\n        /* \"contracts/LearnSendETH.sol\":316:335  msg.sender == owner */\n      eq\n        /* \"contracts/LearnSendETH.sol\":308:351  require(msg.sender == owner, \"Hanya owner\") */\n      tag_25\n      jumpi\n      mload(0x40)\n      shl(0xe5, 0x461bcd)\n      dup2\n      mstore\n        /* \"#utility.yul\":897:899   */\n      0x20\n        /* \"contracts/LearnSendETH.sol\":308:351  require(msg.sender == owner, \"Hanya owner\") */\n      0x04\n      dup3\n      add\n        /* \"#utility.yul\":879:900   */\n      mstore\n        /* \"#utility.yul\":936:938   */\n      0x0b\n        /* \"#utility.yul\":916:934   */\n      0x24\n      dup3\n      add\n        /* \"#utility.yul\":909:939   */\n      mstore\n      shl(0xa9, 0x2430b73cb09037bbb732b9)\n        /* \"#utility.yul\":955:973   */\n      0x44\n      dup3\n      add\n        /* \"#utility.yul\":948:989   */\n      mstore\n        /* \"#utility.yul\":1006:1024   */\n      0x64\n      add\n        /* \"contracts/LearnSendETH.sol\":308:351  require(msg.sender == owner, \"Hanya owner\") */\n    tag_26:\n      mload(0x40)\n      dup1\n      swap2\n      sub\n      swap1\n      revert\n    tag_25:\n        /* \"contracts/LearnSendETH.sol\":390:402  bool success */\n      0x00\n        /* \"contracts/LearnSendETH.sol\":408:411  _to */\n      dup2\n      sub(shl(0xa0, 0x01), 0x01)\n        /* \"contracts/LearnSendETH.sol\":408:416  _to.call */\n      and\n        /* \"contracts/LearnSendETH.sol\":424:435  0.001 ether */\n      0x038d7ea4c68000\n        /* \"contracts/LearnSendETH.sol\":408:440  _to.call{value: 0.001 ether}(\"\") */\n      mload(0x40)\n      0x00\n      mload(0x40)\n      dup1\n      dup4\n      sub\n      dup2\n      dup6\n      dup8\n      gas\n      call\n      swap3\n      pop\n      pop\n      pop\n      returndatasize\n      dup1\n      0x00\n      dup2\n      eq\n      tag_32\n      jumpi\n      mload(0x40)\n      swap2\n      pop\n      and(add(returndatasize, 0x3f), not(0x1f))\n      dup3\n      add\n      0x40\n      mstore\n      returndatasize\n      dup3\n      mstore\n      returndatasize\n      0x00\n      0x20\n      dup5\n      add\n      returndatacopy\n      jump(tag_31)\n    tag_32:\n      0x60\n      swap2\n      pop\n    tag_31:\n      pop\n        /* \"contracts/LearnSendETH.sol\":389:440  (bool success, ) = _to.call{value: 0.001 ether}(\"\") */\n      pop\n      swap1\n      pop\n        /* \"contracts/LearnSendETH.sol\":458:465  success */\n      dup1\n        /* \"contracts/LearnSendETH.sol\":450:484  require(success, \"Transfer gagal\") */\n      tag_33\n      jumpi\n      mload(0x40)\n      shl(0xe5, 0x461bcd)\n      dup2\n      mstore\n        /* \"#utility.yul\":1447:1449   */\n      0x20\n        /* \"contracts/LearnSendETH.sol\":450:484  require(success, \"Transfer gagal\") */\n      0x04\n      dup3\n      add\n        /* \"#utility.yul\":1429:1450   */\n      mstore\n        /* \"#utility.yul\":1486:1488   */\n      0x0e\n        /* \"#utility.yul\":1466:1484   */\n      0x24\n      dup3\n      add\n        /* \"#utility.yul\":1459:1489   */\n      mstore\n      shl(0x92, 0x151c985b9cd9995c8819d859d85b)\n        /* \"#utility.yul\":1505:1523   */\n      0x44\n      dup3\n      add\n        /* \"#utility.yul\":1498:1542   */\n      mstore\n        /* \"#utility.yul\":1559:1577   */\n      0x64\n      add\n        /* \"contracts/LearnSendETH.sol\":450:484  require(success, \"Transfer gagal\") */\n      tag_26\n        /* \"#utility.yul\":1245:1583   */\n      jump\n        /* \"contracts/LearnSendETH.sol\":450:484  require(success, \"Transfer gagal\") */\n    tag_33:\n        /* \"contracts/LearnSendETH.sol\":298:491  {... */\n      pop\n        /* \"contracts/LearnSendETH.sol\":258:491  function sendReward(address _to) public {... */\n      pop\n      jump\t// out\n        /* \"#utility.yul\":404:690   */\n    tag_19:\n        /* \"#utility.yul\":463:469   */\n      0x00\n        /* \"#utility.yul\":516:518   */\n      0x20\n        /* \"#utility.yul\":504:513   */\n      dup3\n        /* \"#utility.yul\":495:502   */\n      dup5\n        /* \"#utility.yul\":491:514   */\n      sub\n        /* \"#utility.yul\":487:519   */\n      slt\n        /* \"#utility.yul\":484:536   */\n      iszero\n      tag_41\n      jumpi\n        /* \"#utility.yul\":532:533   */\n      0x00\n        /* \"#utility.yul\":529:530   */\n      0x00\n        /* \"#utility.yul\":522:534   */\n      revert\n        /* \"#utility.yul\":484:536   */\n    tag_41:\n        /* \"#utility.yul\":558:581   */\n      dup2\n      calldataload\n      sub(shl(0xa0, 0x01), 0x01)\n        /* \"#utility.yul\":610:641   */\n      dup2\n      and\n        /* \"#utility.yul\":600:642   */\n      dup2\n      eq\n        /* \"#utility.yul\":590:660   */\n      tag_42\n      jumpi\n        /* \"#utility.yul\":656:657   */\n      0x00\n        /* \"#utility.yul\":653:654   */\n      0x00\n        /* \"#utility.yul\":646:658   */\n      revert\n        /* \"#utility.yul\":590:660   */\n    tag_42:\n        /* \"#utility.yul\":679:684   */\n      swap4\n        /* \"#utility.yul\":404:690   */\n      swap3\n      pop\n      pop\n      pop\n      jump\t// out\n\n    auxdata: 0xa26469706673582212202582b4e7735d840ec48fdae5bc5f7359eec248de4db231a27f5e79185e60109b64736f6c634300081e0033\n}\n",
				"bytecode": {
					"linkReferences": {},
					"object": "6080604052348015600e575f5ffd5b505f80546001600160a01b031916331790556102028061002d5f395ff3fe60806040526004361061003e575f3560e01c806312065fe0146100425780638da5cb5b146100615780639dabff2514610097578063d0e30db0146100b6575b5f5ffd5b34801561004d575f5ffd5b506040514781526020015b60405180910390f35b34801561006c575f5ffd5b505f5461007f906001600160a01b031681565b6040516001600160a01b039091168152602001610058565b3480156100a2575f5ffd5b506100b66100b136600461019f565b6100b8565b005b5f546001600160a01b031633146101045760405162461bcd60e51b815260206004820152600b60248201526a2430b73cb09037bbb732b960a91b60448201526064015b60405180910390fd5b5f816001600160a01b031666038d7ea4c680006040515f6040518083038185875af1925050503d805f8114610154576040519150601f19603f3d011682016040523d82523d5f602084013e610159565b606091505b505090508061019b5760405162461bcd60e51b815260206004820152600e60248201526d151c985b9cd9995c8819d859d85b60921b60448201526064016100fb565b5050565b5f602082840312156101af575f5ffd5b81356001600160a01b03811681146101c5575f5ffd5b939250505056fea26469706673582212202582b4e7735d840ec48fdae5bc5f7359eec248de4db231a27f5e79185e60109b64736f6c634300081e0033",
					"opcodes": "PUSH1 0x80 PUSH1 0x40 MSTORE CALLVALUE DUP1 ISZERO PUSH1 0xE JUMPI PUSH0 PUSH0 REVERT JUMPDEST POP PUSH0 DUP1 SLOAD PUSH1 0x1 PUSH1 0x1 PUSH1 0xA0 SHL SUB NOT AND CALLER OR SWAP1 SSTORE PUSH2 0x202 DUP1 PUSH2 0x2D PUSH0 CODECOPY PUSH0 RETURN INVALID PUSH1 0x80 PUSH1 0x40 MSTORE PUSH1 0x4 CALLDATASIZE LT PUSH2 0x3E JUMPI PUSH0 CALLDATALOAD PUSH1 0xE0 SHR DUP1 PUSH4 0x12065FE0 EQ PUSH2 0x42 JUMPI DUP1 PUSH4 0x8DA5CB5B EQ PUSH2 0x61 JUMPI DUP1 PUSH4 0x9DABFF25 EQ PUSH2 0x97 JUMPI DUP1 PUSH4 0xD0E30DB0 EQ PUSH2 0xB6 JUMPI JUMPDEST PUSH0 PUSH0 REVERT JUMPDEST CALLVALUE DUP1 ISZERO PUSH2 0x4D JUMPI PUSH0 PUSH0 REVERT JUMPDEST POP PUSH1 0x40 MLOAD SELFBALANCE DUP2 MSTORE PUSH1 0x20 ADD JUMPDEST PUSH1 0x40 MLOAD DUP1 SWAP2 SUB SWAP1 RETURN JUMPDEST CALLVALUE DUP1 ISZERO PUSH2 0x6C JUMPI PUSH0 PUSH0 REVERT JUMPDEST POP PUSH0 SLOAD PUSH2 0x7F SWAP1 PUSH1 0x1 PUSH1 0x1 PUSH1 0xA0 SHL SUB AND DUP2 JUMP JUMPDEST PUSH1 0x40 MLOAD PUSH1 0x1 PUSH1 0x1 PUSH1 0xA0 SHL SUB SWAP1 SWAP2 AND DUP2 MSTORE PUSH1 0x20 ADD PUSH2 0x58 JUMP JUMPDEST CALLVALUE DUP1 ISZERO PUSH2 0xA2 JUMPI PUSH0 PUSH0 REVERT JUMPDEST POP PUSH2 0xB6 PUSH2 0xB1 CALLDATASIZE PUSH1 0x4 PUSH2 0x19F JUMP JUMPDEST PUSH2 0xB8 JUMP JUMPDEST STOP JUMPDEST PUSH0 SLOAD PUSH1 0x1 PUSH1 0x1 PUSH1 0xA0 SHL SUB AND CALLER EQ PUSH2 0x104 JUMPI PUSH1 0x40 MLOAD PUSH3 0x461BCD PUSH1 0xE5 SHL DUP2 MSTORE PUSH1 0x20 PUSH1 0x4 DUP3 ADD MSTORE PUSH1 0xB PUSH1 0x24 DUP3 ADD MSTORE PUSH11 0x2430B73CB09037BBB732B9 PUSH1 0xA9 SHL PUSH1 0x44 DUP3 ADD MSTORE PUSH1 0x64 ADD JUMPDEST PUSH1 0x40 MLOAD DUP1 SWAP2 SUB SWAP1 REVERT JUMPDEST PUSH0 DUP2 PUSH1 0x1 PUSH1 0x1 PUSH1 0xA0 SHL SUB AND PUSH7 0x38D7EA4C68000 PUSH1 0x40 MLOAD PUSH0 PUSH1 0x40 MLOAD DUP1 DUP4 SUB DUP2 DUP6 DUP8 GAS CALL SWAP3 POP POP POP RETURNDATASIZE DUP1 PUSH0 DUP2 EQ PUSH2 0x154 JUMPI PUSH1 0x40 MLOAD SWAP2 POP PUSH1 0x1F NOT PUSH1 0x3F RETURNDATASIZE ADD AND DUP3 ADD PUSH1 0x40 MSTORE RETURNDATASIZE DUP3 MSTORE RETURNDATASIZE PUSH0 PUSH1 0x20 DUP5 ADD RETURNDATACOPY PUSH2 0x159 JUMP JUMPDEST PUSH1 0x60 SWAP2 POP JUMPDEST POP POP SWAP1 POP DUP1 PUSH2 0x19B JUMPI PUSH1 0x40 MLOAD PUSH3 0x461BCD PUSH1 0xE5 SHL DUP2 MSTORE PUSH1 0x20 PUSH1 0x4 DUP3 ADD MSTORE PUSH1 0xE PUSH1 0x24 DUP3 ADD MSTORE PUSH14 0x151C985B9CD9995C8819D859D85B PUSH1 0x92 SHL PUSH1 0x44 DUP3 ADD MSTORE PUSH1 0x64 ADD PUSH2 0xFB JUMP JUMPDEST POP POP JUMP JUMPDEST PUSH0 PUSH1 0x20 DUP3 DUP5 SUB SLT ISZERO PUSH2 0x1AF JUMPI PUSH0 PUSH0 REVERT JUMPDEST DUP2 CALLDATALOAD PUSH1 0x1 PUSH1 0x1 PUSH1 0xA0 SHL SUB DUP2 AND DUP2 EQ PUSH2 0x1C5 JUMPI PUSH0 PUSH0 REVERT JUMPDEST SWAP4 SWAP3 POP POP POP JUMP INVALID LOG2 PUSH5 0x6970667358 0x22 SLT KECCAK256 0x25 DUP3 0xB4 SWAPN 0x73 TSTORE DUP5 0xE 0xC4 DUP16 0xDA JUMPF 0xBC5F PUSH20 0x59EEC248DE4DB231A27F5E79185E60109B64736F PUSH13 0x634300081E0033000000000000 "
				},
				"gasEstimates": {
					"creation": {
						"codeDepositCost": "102800",
						"executionCost": "24385",
						"totalCost": "127185"
					},
					"external": {
						"deposit()": "139",
						"getBalance()": "145",
						"owner()": "2335",
						"sendReward(address)": "infinite"
					}
				},
				"methodIdentifiers": {
					"deposit()": "d0e30db0",
					"getBalance()": "12065fe0",
					"owner()": "8da5cb5b",
					"sendReward(address)": "9dabff25"
				}
			},
			"storageLayout": {
				"storage": [
					{
						"astId": 3,
						"contract": "contracts/LearnSendETH.sol:LearnSendETH",
						"label": "owner",
						"offset": 0,
						"slot": "0",
						"type": "t_address"
					}
				],
				"types": {
					"t_address": {
						"encoding": "inplace",
						"label": "address",
						"numberOfBytes": "20"
					}
				}
			},
			"userdoc": {
				"kind": "user",
				"methods": {},
				"version": 1
			}
		}
	}
}