{
	"contracts/LearnStruct.sol": {
		"LearnStruct": {
			"abi": [
				{
					"inputs": [],
					"stateMutability": "nonpayable",
					"type": "constructor"
				},
				{
					"inputs": [],
					"name": "grow",
					"outputs": [],
					"stateMutability": "nonpayable",
					"type": "function"
				},
				{
					"inputs": [],
					"name": "myPlant",
					"outputs": [
						{
							"internalType": "uint256",
							"name": "id",
							"type": "uint256"
						},
						{
							"internalType": "address",
							"name": "owner",
							"type": "address"
						},
						{
							"internalType": "enum LearnStruct.GrowthStage",
							"name": "stage",
							"type": "uint8"
						},
						{
							"internalType": "uint8",
							"name": "waterLevel",
							"type": "uint8"
						},
						{
							"internalType": "bool",
							"name": "isAlive",
							"type": "bool"
						}
					],
					"stateMutability": "view",
					"type": "function"
				},
				{
					"inputs": [],
					"name": "water",
					"outputs": [],
					"stateMutability": "nonpayable",
					"type": "function"
				}
			],
			"devdoc": {
				"kind": "dev",
				"methods": {},
				"version": 1
			},
			"evm": {
				"assembly": "    /* \"contracts/LearnStruct.sol\":58:731  contract LearnStruct {... */\n  mstore(0x40, 0x80)\n    /* \"contracts/LearnStruct.sol\":314:515  constructor() {... */\n  callvalue\n  dup1\n  iszero\n  tag_1\n  jumpi\n  revert(0x00, 0x00)\ntag_1:\n  pop\n    /* \"contracts/LearnStruct.sol\":348:508  Plant({... */\n  0x40\n  dup1\n  mload\n  0xa0\n  dup2\n  add\n  dup3\n  mstore\n    /* \"contracts/LearnStruct.sol\":372:373  1 */\n  0x01\n    /* \"contracts/LearnStruct.sol\":348:508  Plant({... */\n  dup1\n  dup3\n  mstore\n    /* \"contracts/LearnStruct.sol\":394:404  msg.sender */\n  caller\n    /* \"contracts/LearnStruct.sol\":348:508  Plant({... */\n  0x20\n  dup4\n  add\n  dup2\n  swap1\n  mstore\n  0x00\n  swap4\n  dup4\n  add\n  dup5\n  swap1\n  mstore\n    /* \"contracts/LearnStruct.sol\":467:470  100 */\n  0x64\n    /* \"contracts/LearnStruct.sol\":348:508  Plant({... */\n  0x60\n  dup5\n  add\n  mstore\n  0x80\n  swap1\n  swap3\n  add\n  dup2\n  swap1\n  mstore\n    /* \"contracts/LearnStruct.sol\":338:508  myPlant = Plant({... */\n  swap2\n  dup3\n  swap1\n  sstore\n  dup2\n  sload\n  shl(0xaa, 0x59)\n  not(shl(0xa8, 0xffff))\n  swap1\n  swap3\n  and\n  not(sub(shl(0xb8, 0x01), 0x01))\n  swap1\n  swap2\n  and\n  or\n  or\n  swap1\n  sstore\n    /* \"contracts/LearnStruct.sol\":58:731  contract LearnStruct {... */\n  dataSize(sub_0)\n  dup1\n  dataOffset(sub_0)\n  0x00\n  codecopy\n  0x00\n  return\nstop\n\nsub_0: assembly {\n        /* \"contracts/LearnStruct.sol\":58:731  contract LearnStruct {... */\n      mstore(0x40, 0x80)\n      callvalue\n      dup1\n      iszero\n      tag_1\n      jumpi\n      revert(0x00, 0x00)\n    tag_1:\n      pop\n      jumpi(tag_2, lt(calldatasize, 0x04))\n      shr(0xe0, calldataload(0x00))\n      dup1\n      0x3a8fdff0\n      eq\n      tag_3\n      jumpi\n      dup1\n      0x5298948e\n      eq\n      tag_4\n      jumpi\n      dup1\n      0xffce2210\n      eq\n      tag_5\n      jumpi\n    tag_2:\n      revert(0x00, 0x00)\n        /* \"contracts/LearnStruct.sol\":287:307  Plant public myPlant */\n    tag_3:\n      sload(0x00)\n      sload(0x01)\n      tag_6\n      swap2\n      swap1\n      sub(shl(0xa0, 0x01), 0x01)\n      dup2\n      and\n      swap1\n      0xff\n      shl(0xa0, 0x01)\n      dup3\n      div\n      dup2\n      and\n      swap2\n      shl(0xa8, 0x01)\n      dup2\n      div\n      dup3\n      and\n      swap2\n      shl(0xb0, 0x01)\n      swap1\n      swap2\n      div\n      and\n      dup6\n      jump\n    tag_6:\n      mload(0x40)\n      tag_8\n      swap6\n      swap5\n      swap4\n      swap3\n      swap2\n      swap1\n      tag_9\n      jump\t// in\n    tag_8:\n      mload(0x40)\n      dup1\n      swap2\n      sub\n      swap1\n      return\n        /* \"contracts/LearnStruct.sol\":592:729  function grow() public {... */\n    tag_4:\n      tag_10\n      tag_11\n      jump\t// in\n    tag_10:\n      stop\n        /* \"contracts/LearnStruct.sol\":521:586  function water() public {... */\n    tag_5:\n        /* \"contracts/LearnStruct.sol\":555:573  myPlant.waterLevel */\n      0x01\n        /* \"contracts/LearnStruct.sol\":555:579  myPlant.waterLevel = 100 */\n      dup1\n      sload\n      not(shl(0xa8, 0xff))\n      and\n      shl(0xaa, 0x19)\n      or\n      swap1\n      sstore\n        /* \"contracts/LearnStruct.sol\":592:729  function grow() public {... */\n      stop\n    tag_11:\n        /* \"contracts/LearnStruct.sol\":646:662  GrowthStage.SEED */\n      0x00\n        /* \"contracts/LearnStruct.sol\":629:642  myPlant.stage */\n      sload(0x01)\n      shl(0xa0, 0x01)\n      swap1\n      div\n      0xff\n      and\n        /* \"contracts/LearnStruct.sol\":629:662  myPlant.stage == GrowthStage.SEED */\n      0x03\n      dup2\n      gt\n      iszero\n      tag_19\n      jumpi\n      tag_19\n      tag_17\n      jump\t// in\n    tag_19:\n      sub\n        /* \"contracts/LearnStruct.sol\":625:723  if (myPlant.stage == GrowthStage.SEED) {... */\n      tag_20\n      jumpi\n        /* \"contracts/LearnStruct.sol\":694:712  GrowthStage.SPROUT */\n      0x01\n        /* \"contracts/LearnStruct.sol\":678:712  myPlant.stage = GrowthStage.SPROUT */\n      dup1\n      sload\n      not(shl(0xa0, 0xff))\n      and\n      shl(0xa0, 0x01)\n      or\n      swap1\n      sstore\n        /* \"contracts/LearnStruct.sol\":625:723  if (myPlant.stage == GrowthStage.SEED) {... */\n    tag_20:\n        /* \"contracts/LearnStruct.sol\":592:729  function grow() public {... */\n      jump\t// out\n        /* \"#utility.yul\":14:141   */\n    tag_17:\n        /* \"#utility.yul\":75:85   */\n      0x4e487b71\n        /* \"#utility.yul\":70:73   */\n      0xe0\n        /* \"#utility.yul\":66:86   */\n      shl\n        /* \"#utility.yul\":63:64   */\n      0x00\n        /* \"#utility.yul\":56:87   */\n      mstore\n        /* \"#utility.yul\":106:110   */\n      0x21\n        /* \"#utility.yul\":103:104   */\n      0x04\n        /* \"#utility.yul\":96:111   */\n      mstore\n        /* \"#utility.yul\":130:134   */\n      0x24\n        /* \"#utility.yul\":127:128   */\n      0x00\n        /* \"#utility.yul\":120:135   */\n      revert\n        /* \"#utility.yul\":146:816   */\n    tag_9:\n        /* \"#utility.yul\":406:431   */\n      dup6\n      dup2\n      mstore\n      sub(shl(0xa0, 0x01), 0x01)\n        /* \"#utility.yul\":467:499   */\n      dup6\n      and\n        /* \"#utility.yul\":462:464   */\n      0x20\n        /* \"#utility.yul\":447:465   */\n      dup3\n      add\n        /* \"#utility.yul\":440:500   */\n      mstore\n        /* \"#utility.yul\":393:396   */\n      0xa0\n        /* \"#utility.yul\":378:397   */\n      dup2\n      add\n        /* \"#utility.yul\":530:531   */\n      0x04\n        /* \"#utility.yul\":519:532   */\n      dup6\n      lt\n        /* \"#utility.yul\":509:653   */\n      tag_27\n      jumpi\n        /* \"#utility.yul\":575:585   */\n      0x4e487b71\n        /* \"#utility.yul\":570:573   */\n      0xe0\n        /* \"#utility.yul\":566:586   */\n      shl\n        /* \"#utility.yul\":563:564   */\n      0x00\n        /* \"#utility.yul\":556:587   */\n      mstore\n        /* \"#utility.yul\":610:614   */\n      0x21\n        /* \"#utility.yul\":607:608   */\n      0x04\n        /* \"#utility.yul\":600:615   */\n      mstore\n        /* \"#utility.yul\":638:642   */\n      0x24\n        /* \"#utility.yul\":635:636   */\n      0x00\n        /* \"#utility.yul\":628:643   */\n      revert\n        /* \"#utility.yul\":509:653   */\n    tag_27:\n        /* \"#utility.yul\":689:695   */\n      dup5\n        /* \"#utility.yul\":684:686   */\n      0x40\n        /* \"#utility.yul\":673:682   */\n      dup4\n        /* \"#utility.yul\":669:687   */\n      add\n        /* \"#utility.yul\":662:696   */\n      mstore\n        /* \"#utility.yul\":744:748   */\n      0xff\n        /* \"#utility.yul\":736:742   */\n      dup5\n        /* \"#utility.yul\":732:749   */\n      and\n        /* \"#utility.yul\":727:729   */\n      0x60\n        /* \"#utility.yul\":716:725   */\n      dup4\n        /* \"#utility.yul\":712:730   */\n      add\n        /* \"#utility.yul\":705:750   */\n      mstore\n        /* \"#utility.yul\":801:807   */\n      dup3\n        /* \"#utility.yul\":794:808   */\n      iszero\n        /* \"#utility.yul\":787:809   */\n      iszero\n        /* \"#utility.yul\":781:784   */\n      0x80\n        /* \"#utility.yul\":770:779   */\n      dup4\n        /* \"#utility.yul\":766:785   */\n      add\n        /* \"#utility.yul\":759:810   */\n      mstore\n        /* \"#utility.yul\":146:816   */\n      swap7\n      swap6\n      pop\n      pop\n      pop\n      pop\n      pop\n      pop\n      jump\t// out\n\n    auxdata: 0xa2646970667358221220112c6446d5ed8df9e05a84a7e69d83ae389d08d11e9fdec2716e2c6429551f9b64736f6c634300081e0033\n}\n",
				"bytecode": {
					"linkReferences": {},
					"object": "6080604052348015600e575f5ffd5b506040805160a081018252600180825233602083018190525f938301849052606460608401526080909201819052918290558154605960aa1b61ffff60a81b199092166001600160b81b03199091161717905561018a8061006e5f395ff3fe608060405234801561000f575f5ffd5b506004361061003f575f3560e01c80633a8fdff0146100435780635298948e14610094578063ffce22101461009e575b5f5ffd5b5f5460015461007a91906001600160a01b0381169060ff600160a01b8204811691600160a81b8104821691600160b01b9091041685565b60405161008b959493929190610101565b60405180910390f35b61009c6100b3565b005b6001805460ff60a81b1916601960aa1b179055005b5f600154600160a01b900460ff1660038111156100d2576100d26100ed565b036100eb576001805460ff60a01b1916600160a01b1790555b565b634e487b7160e01b5f52602160045260245ffd5b8581526001600160a01b038516602082015260a081016004851061013357634e487b7160e01b5f52602160045260245ffd5b84604083015260ff841660608301528215156080830152969550505050505056fea2646970667358221220112c6446d5ed8df9e05a84a7e69d83ae389d08d11e9fdec2716e2c6429551f9b64736f6c634300081e0033",
					"opcodes": "PUSH1 0x80 PUSH1 0x40 MSTORE CALLVALUE DUP1 ISZERO PUSH1 0xE JUMPI PUSH0 PUSH0 REVERT JUMPDEST POP PUSH1 0x40 DUP1 MLOAD PUSH1 0xA0 DUP2 ADD DUP3 MSTORE PUSH1 0x1 DUP1 DUP3 MSTORE CALLER PUSH1 0x20 DUP4 ADD DUP2 SWAP1 MSTORE PUSH0 SWAP4 DUP4 ADD DUP5 SWAP1 MSTORE PUSH1 0x64 PUSH1 0x60 DUP5 ADD MSTORE PUSH1 0x80 SWAP1 SWAP3 ADD DUP2 SWAP1 MSTORE SWAP2 DUP3 SWAP1 SSTORE DUP2 SLOAD PUSH1 0x59 PUSH1 0xAA SHL PUSH2 0xFFFF PUSH1 0xA8 SHL NOT SWAP1 SWAP3 AND PUSH1 0x1 PUSH1 0x1 PUSH1 0xB8 SHL SUB NOT SWAP1 SWAP2 AND OR OR SWAP1 SSTORE PUSH2 0x18A DUP1 PUSH2 0x6E PUSH0 CODECOPY PUSH0 RETURN INVALID PUSH1 0x80 PUSH1 0x40 MSTORE CALLVALUE DUP1 ISZERO PUSH2 0xF JUMPI PUSH0 PUSH0 REVERT JUMPDEST POP PUSH1 0x4 CALLDATASIZE LT PUSH2 0x3F JUMPI PUSH0 CALLDATALOAD PUSH1 0xE0 SHR DUP1 PUSH4 0x3A8FDFF0 EQ PUSH2 0x43 JUMPI DUP1 PUSH4 0x5298948E EQ PUSH2 0x94 JUMPI DUP1 PUSH4 0xFFCE2210 EQ PUSH2 0x9E JUMPI JUMPDEST PUSH0 PUSH0 REVERT JUMPDEST PUSH0 SLOAD PUSH1 0x1 SLOAD PUSH2 0x7A SWAP2 SWAP1 PUSH1 0x1 PUSH1 0x1 PUSH1 0xA0 SHL SUB DUP2 AND SWAP1 PUSH1 0xFF PUSH1 0x1 PUSH1 0xA0 SHL DUP3 DIV DUP2 AND SWAP2 PUSH1 0x1 PUSH1 0xA8 SHL DUP2 DIV DUP3 AND SWAP2 PUSH1 0x1 PUSH1 0xB0 SHL SWAP1 SWAP2 DIV AND DUP6 JUMP JUMPDEST PUSH1 0x40 MLOAD PUSH2 0x8B SWAP6 SWAP5 SWAP4 SWAP3 SWAP2 SWAP1 PUSH2 0x101 JUMP JUMPDEST PUSH1 0x40 MLOAD DUP1 SWAP2 SUB SWAP1 RETURN JUMPDEST PUSH2 0x9C PUSH2 0xB3 JUMP JUMPDEST STOP JUMPDEST PUSH1 0x1 DUP1 SLOAD PUSH1 0xFF PUSH1 0xA8 SHL NOT AND PUSH1 0x19 PUSH1 0xAA SHL OR SWAP1 SSTORE STOP JUMPDEST PUSH0 PUSH1 0x1 SLOAD PUSH1 0x1 PUSH1 0xA0 SHL SWAP1 DIV PUSH1 0xFF AND PUSH1 0x3 DUP2 GT ISZERO PUSH2 0xD2 JUMPI PUSH2 0xD2 PUSH2 0xED JUMP JUMPDEST SUB PUSH2 0xEB JUMPI PUSH1 0x1 DUP1 SLOAD PUSH1 0xFF PUSH1 0xA0 SHL NOT AND PUSH1 0x1 PUSH1 0xA0 SHL OR SWAP1 SSTORE JUMPDEST JUMP JUMPDEST PUSH4 0x4E487B71 PUSH1 0xE0 SHL PUSH0 MSTORE PUSH1 0x21 PUSH1 0x4 MSTORE PUSH1 0x24 PUSH0 REVERT JUMPDEST DUP6 DUP2 MSTORE PUSH1 0x1 PUSH1 0x1 PUSH1 0xA0 SHL SUB DUP6 AND PUSH1 0x20 DUP3 ADD MSTORE PUSH1 0xA0 DUP2 ADD PUSH1 0x4 DUP6 LT PUSH2 0x133 JUMPI PUSH4 0x4E487B71 PUSH1 0xE0 SHL PUSH0 MSTORE PUSH1 0x21 PUSH1 0x4 MSTORE PUSH1 0x24 PUSH0 REVERT JUMPDEST DUP5 PUSH1 0x40 DUP4 ADD MSTORE PUSH1 0xFF DUP5 AND PUSH1 0x60 DUP4 ADD MSTORE DUP3 ISZERO ISZERO PUSH1 0x80 DUP4 ADD MSTORE SWAP7 SWAP6 POP POP POP POP POP POP JUMP INVALID LOG2 PUSH5 0x6970667358 0x22 SLT KECCAK256 GT 0x2C PUSH5 0x46D5ED8DF9 RJUMP 0x5A84 0xA7 DUPN 0x9D DUP4 0xAE CODESIZE SWAP14 ADDMOD DATALOADN 0x1E9F 0xDE 0xC2 PUSH18 0x6E2C6429551F9B64736F6C634300081E0033 "
				},
				"gasEstimates": {
					"creation": {
						"codeDepositCost": "78800",
						"executionCost": "46617",
						"totalCost": "125417"
					},
					"external": {
						"grow()": "26550",
						"myPlant()": "4658",
						"water()": "24377"
					}
				},
				"methodIdentifiers": {
					"grow()": "5298948e",
					"myPlant()": "3a8fdff0",
					"water()": "ffce2210"
				}
			},
			"storageLayout": {
				"storage": [
					{
						"astId": 21,
						"contract": "contracts/LearnStruct.sol:LearnStruct",
						"label": "myPlant",
						"offset": 0,
						"slot": "0",
						"type": "t_struct(Plant)18_storage"
					}
				],
				"types": {
					"t_address": {
						"encoding": "inplace",
						"label": "address",
						"numberOfBytes": "20"
					},
					"t_bool": {
						"encoding": "inplace",
						"label": "bool",
						"numberOfBytes": "1"
					},
					"t_enum(GrowthStage)6": {
						"encoding": "inplace",
						"label": "enum LearnStruct.GrowthStage",
						"numberOfBytes": "1"
					},
					"t_struct(Plant)18_storage": {
						"encoding": "inplace",
						"label": "struct LearnStruct.Plant",
						"members": [
							{
								"astId": 8,
								"contract": "contracts/LearnStruct.sol:LearnStruct",
								"label": "id",
								"offset": 0,
								"slot": "0",
								"type": "t_uint256"
							},
							{
								"astId": 10,
								"contract": "contracts/LearnStruct.sol:LearnStruct",
								"label": "owner",
								"offset": 0,
								"slot": "1",
								"type": "t_address"
							},
							{
								"astId": 13,
								"contract": "contracts/LearnStruct.sol:LearnStruct",
								"label": "stage",
								"offset": 20,
								"slot": "1",
								"type": "t_enum(GrowthStage)6"
							},
							{
								"astId": 15,
								"contract": "contracts/LearnStruct.sol:LearnStruct",
								"label": "waterLevel",
								"offset": 21,
								"slot": "1",
								"type": "t_uint8"
							},
							{
								"astId": 17,
								"contract": "contracts/LearnStruct.sol:LearnStruct",
								"label": "isAlive",
								"offset": 22,
								"slot": "1",
								"type": "t_bool"
							}
						],
						"numberOfBytes": "64"
					},
					"t_uint256": {
						"encoding": "inplace",
						"label": "uint256",
						"numberOfBytes": "32"
					},
					"t_uint8": {
						"encoding": "inplace",
						"label": "uint8",
						"numberOfBytes": "1"
					}
				}
			},
			"userdoc": {
				"kind": "user",
				"methods": {},
				"version": 1
			}
		}
	}
}