{
	"data": {
		"bytecode": {
			"linkReferences": {},
			"object": "608060405260645f5560c860015561012c600255348015601d575f5ffd5b5061019b8061002b5f395ff3fe608060405234801561000f575f5ffd5b5060043610610055575f3560e01c80631151fad8146100595780633a32b549146100745780635cd7815b146100b657806374d47d20146100be5780637b5d520b146100c6575b5f5ffd5b6100615f5481565b6040519081526020015b60405180910390f35b60408051808201909152601e81527f48616e7961206269736120646970616e6767696c2064617269206c756172000060208201525b60405161006b9190610130565b6100a96100f8565b600154610061565b60408051808201909152601681527553656d756120626973612070616e6767696c20696e6960501b60208201526100a9565b606061012b60408051808201909152601481527312185b9e58481d5b9d1d5ac81a5b9d195c9b985b60621b602082015290565b905090565b602081525f82518060208401528060208501604085015e5f604082850101526040601f19601f8301168401019150509291505056fea264697066735822122021397642400197b0231bd1b680a4af8a62cb384f351f7f2dc87247afbd22494f64736f6c634300081e0033",
			"opcodes": "PUSH1 0x80 PUSH1 0x40 MSTORE PUSH1 0x64 PUSH0 SSTORE PUSH1 0xC8 PUSH1 0x1 SSTORE PUSH2 0x12C PUSH1 0x2 SSTORE CALLVALUE DUP1 ISZERO PUSH1 0x1D JUMPI PUSH0 PUSH0 REVERT JUMPDEST POP PUSH2 0x19B DUP1 PUSH2 0x2B PUSH0 CODECOPY PUSH0 RETURN INVALID PUSH1 0x80 PUSH1 0x40 MSTORE CALLVALUE DUP1 ISZERO PUSH2 0xF JUMPI PUSH0 PUSH0 REVERT JUMPDEST POP PUSH1 0x4 CALLDATASIZE LT PUSH2 0x55 JUMPI PUSH0 CALLDATALOAD PUSH1 0xE0 SHR DUP1 PUSH4 0x1151FAD8 EQ PUSH2 0x59 JUMPI DUP1 PUSH4 0x3A32B549 EQ PUSH2 0x74 JUMPI DUP1 PUSH4 0x5CD7815B EQ PUSH2 0xB6 JUMPI DUP1 PUSH4 0x74D47D20 EQ PUSH2 0xBE JUMPI DUP1 PUSH4 0x7B5D520B EQ PUSH2 0xC6 JUMPI JUMPDEST PUSH0 PUSH0 REVERT JUMPDEST PUSH2 0x61 PUSH0 SLOAD DUP2 JUMP JUMPDEST PUSH1 0x40 MLOAD SWAP1 DUP2 MSTORE PUSH1 0x20 ADD JUMPDEST PUSH1 0x40 MLOAD DUP1 SWAP2 SUB SWAP1 RETURN JUMPDEST PUSH1 0x40 DUP1 MLOAD DUP1 DUP3 ADD SWAP1 SWAP2 MSTORE PUSH1 0x1E DUP2 MSTORE PUSH32 0x48616E7961206269736120646970616E6767696C2064617269206C7561720000 PUSH1 0x20 DUP3 ADD MSTORE JUMPDEST PUSH1 0x40 MLOAD PUSH2 0x6B SWAP2 SWAP1 PUSH2 0x130 JUMP JUMPDEST PUSH2 0xA9 PUSH2 0xF8 JUMP JUMPDEST PUSH1 0x1 SLOAD PUSH2 0x61 JUMP JUMPDEST PUSH1 0x40 DUP1 MLOAD DUP1 DUP3 ADD SWAP1 SWAP2 MSTORE PUSH1 0x16 DUP2 MSTORE PUSH22 0x53656D756120626973612070616E6767696C20696E69 PUSH1 0x50 SHL PUSH1 0x20 DUP3 ADD MSTORE PUSH2 0xA9 JUMP JUMPDEST PUSH1 0x60 PUSH2 0x12B PUSH1 0x40 DUP1 MLOAD DUP1 DUP3 ADD SWAP1 SWAP2 MSTORE PUSH1 0x14 DUP2 MSTORE PUSH20 0x12185B9E58481D5B9D1D5AC81A5B9D195C9B985B PUSH1 0x62 SHL PUSH1 0x20 DUP3 ADD MSTORE SWAP1 JUMP JUMPDEST SWAP1 POP SWAP1 JUMP JUMPDEST PUSH1 0x20 DUP2 MSTORE PUSH0 DUP3 MLOAD DUP1 PUSH1 0x20 DUP5 ADD MSTORE DUP1 PUSH1 0x20 DUP6 ADD PUSH1 0x40 DUP6 ADD MCOPY PUSH0 PUSH1 0x40 DUP3 DUP6 ADD ADD MSTORE PUSH1 0x40 PUSH1 0x1F NOT PUSH1 0x1F DUP4 ADD AND DUP5 ADD ADD SWAP2 POP POP SWAP3 SWAP2 POP POP JUMP INVALID LOG2 PUSH5 0x6970667358 0x22 SLT KECCAK256 0x21 CODECOPY PUSH23 0x42400197B0231BD1B680A4AF8A62CB384F351F7F2DC872 SELFBALANCE 0xAF 0xBD 0x22 BLOBHASH 0x4F PUSH5 0x736F6C6343 STOP ADDMOD 0x1E STOP CALLER "
		},
		"gasEstimates": {
			"creation": {
				"codeDepositCost": "82200",
				"executionCost": "66444",
				"totalCost": "148644"
			},
			"external": {
				"externalFunction()": "infinite",
				"getPrivateVar()": "2324",
				"publicFunction()": "infinite",
				"publicVar()": "2260",
				"testInternalCall()": "infinite"
			},
			"internal": {
				"internalFunction()": "infinite",
				"privateFunction()": "infinite"
			}
		},
		"methodIdentifiers": {
			"externalFunction()": "3a32b549",
			"getPrivateVar()": "74d47d20",
			"publicFunction()": "7b5d520b",
			"publicVar()": "1151fad8",
			"testInternalCall()": "5cd7815b"
		}
	},
	"abi": [
		{
			"inputs": [],
			"name": "externalFunction",
			"outputs": [
				{
					"internalType": "string",
					"name": "",
					"type": "string"
				}
			],
			"stateMutability": "pure",
			"type": "function"
		},
		{
			"inputs": [],
			"name": "getPrivateVar",
			"outputs": [
				{
					"internalType": "uint256",
					"name": "",
					"type": "uint256"
				}
			],
			"stateMutability": "view",
			"type": "function"
		},
		{
			"inputs": [],
			"name": "publicFunction",
			"outputs": [
				{
					"internalType": "string",
					"name": "",
					"type": "string"
				}
			],
			"stateMutability": "pure",
			"type": "function"
		},
		{
			"inputs": [],
			"name": "publicVar",
			"outputs": [
				{
					"internalType": "uint256",
					"name": "",
					"type": "uint256"
				}
			],
			"stateMutability": "view",
			"type": "function"
		},
		{
			"inputs": [],
			"name": "testInternalCall",
			"outputs": [
				{
					"internalType": "string",
					"name": "",
					"type": "string"
				}
			],
			"stateMutability": "pure",
			"type": "function"
		}
	]
}