{
	"data": {
		"bytecode": {
			"linkReferences": {},
			"object": "6080604052348015600e575f5ffd5b505f805460ff19169055610161806100255f395ff3fe608060405234801561000f575f5ffd5b5060043610610034575f3560e01c80635298948e146100385780635bf5d54c14610042575b5f5ffd5b610040610064565b005b5f5461004e9060ff1681565b60405161005b9190610105565b60405180910390f35b5f5f5460ff16600381111561007b5761007b6100f1565b03610095575f80546001919060ff191682805b0217905550565b60015f5460ff1660038111156100ad576100ad6100f1565b036100c5575f80546002919060ff191660018361008e565b60025f5460ff1660038111156100dd576100dd6100f1565b036100ef575f805460ff191660031790555b565b634e487b7160e01b5f52602160045260245ffd5b602081016004831061012557634e487b7160e01b5f52602160045260245ffd5b9190529056fea264697066735822122014f1283c1709b10b889cb5006aeb6f126b8f9ee34252e5f49969a435fac3893064736f6c634300081e0033",
			"opcodes": "PUSH1 0x80 PUSH1 0x40 MSTORE CALLVALUE DUP1 ISZERO PUSH1 0xE JUMPI PUSH0 PUSH0 REVERT JUMPDEST POP PUSH0 DUP1 SLOAD PUSH1 0xFF NOT AND SWAP1 SSTORE PUSH2 0x161 DUP1 PUSH2 0x25 PUSH0 CODECOPY PUSH0 RETURN INVALID PUSH1 0x80 PUSH1 0x40 MSTORE CALLVALUE DUP1 ISZERO PUSH2 0xF JUMPI PUSH0 PUSH0 REVERT JUMPDEST POP PUSH1 0x4 CALLDATASIZE LT PUSH2 0x34 JUMPI PUSH0 CALLDATALOAD PUSH1 0xE0 SHR DUP1 PUSH4 0x5298948E EQ PUSH2 0x38 JUMPI DUP1 PUSH4 0x5BF5D54C EQ PUSH2 0x42 JUMPI JUMPDEST PUSH0 PUSH0 REVERT JUMPDEST PUSH2 0x40 PUSH2 0x64 JUMP JUMPDEST STOP JUMPDEST PUSH0 SLOAD PUSH2 0x4E SWAP1 PUSH1 0xFF AND DUP2 JUMP JUMPDEST PUSH1 0x40 MLOAD PUSH2 0x5B SWAP2 SWAP1 PUSH2 0x105 JUMP JUMPDEST PUSH1 0x40 MLOAD DUP1 SWAP2 SUB SWAP1 RETURN JUMPDEST PUSH0 PUSH0 SLOAD PUSH1 0xFF AND PUSH1 0x3 DUP2 GT ISZERO PUSH2 0x7B JUMPI PUSH2 0x7B PUSH2 0xF1 JUMP JUMPDEST SUB PUSH2 0x95 JUMPI PUSH0 DUP1 SLOAD PUSH1 0x1 SWAP2 SWAP1 PUSH1 0xFF NOT AND DUP3 DUP1 JUMPDEST MUL OR SWAP1 SSTORE POP JUMP JUMPDEST PUSH1 0x1 PUSH0 SLOAD PUSH1 0xFF AND PUSH1 0x3 DUP2 GT ISZERO PUSH2 0xAD JUMPI PUSH2 0xAD PUSH2 0xF1 JUMP JUMPDEST SUB PUSH2 0xC5 JUMPI PUSH0 DUP1 SLOAD PUSH1 0x2 SWAP2 SWAP1 PUSH1 0xFF NOT AND PUSH1 0x1 DUP4 PUSH2 0x8E JUMP JUMPDEST PUSH1 0x2 PUSH0 SLOAD PUSH1 0xFF AND PUSH1 0x3 DUP2 GT ISZERO PUSH2 0xDD JUMPI PUSH2 0xDD PUSH2 0xF1 JUMP JUMPDEST SUB PUSH2 0xEF JUMPI PUSH0 DUP1 SLOAD PUSH1 0xFF NOT AND PUSH1 0x3 OR SWAP1 SSTORE JUMPDEST JUMP JUMPDEST PUSH4 0x4E487B71 PUSH1 0xE0 SHL PUSH0 MSTORE PUSH1 0x21 PUSH1 0x4 MSTORE PUSH1 0x24 PUSH0 REVERT JUMPDEST PUSH1 0x20 DUP2 ADD PUSH1 0x4 DUP4 LT PUSH2 0x125 JUMPI PUSH4 0x4E487B71 PUSH1 0xE0 SHL PUSH0 MSTORE PUSH1 0x21 PUSH1 0x4 MSTORE PUSH1 0x24 PUSH0 REVERT JUMPDEST SWAP2 SWAP1 MSTORE SWAP1 JUMP INVALID LOG2 PUSH5 0x6970667358 0x22 SLT KECCAK256 EQ CALL 0x28 EXTCODECOPY OR MULMOD 0xB1 SIGNEXTEND DUP9 SWAP13 0xB5 STOP PUSH11 0xEB6F126B8F9EE34252E5F4 SWAP10 PUSH10 0xA435FAC3893064736F6C PUSH4 0x4300081E STOP CALLER "
		},
		"gasEstimates": {
			"creation": {
				"codeDepositCost": "70600",
				"executionCost": "24338",
				"totalCost": "94938"
			},
			"external": {
				"currentStage()": "2349",
				"grow()": "30805"
			}
		},
		"methodIdentifiers": {
			"currentStage()": "5bf5d54c",
			"grow()": "5298948e"
		}
	},
	"abi": [
		{
			"inputs": [],
			"stateMutability": "nonpayable",
			"type": "constructor"
		},
		{
			"inputs": [],
			"name": "currentStage",
			"outputs": [
				{
					"internalType": "enum LearnEnum.GrowthStage",
					"name": "",
					"type": "uint8"
				}
			],
			"stateMutability": "view",
			"type": "function"
		},
		{
			"inputs": [],
			"name": "grow",
			"outputs": [],
			"stateMutability": "nonpayable",
			"type": "function"
		}
	]
}