{
	"data": {
		"bytecode": {
			"linkReferences": {},
			"object": "6080604052348015600e575f5ffd5b5060015f81905560649055610101806100265f395ff3fe6080604052348015600e575f5ffd5b50600436106044575f3560e01c8063203836d61460485780636e516f24146050578063999353c114606a578063c216ae46146071575b5f5ffd5b604e6080565b005b605860015481565b60405190815260200160405180910390f35b60585f5481565b604e607c3660046091565b5f55565b600154608c90600a60a7565b600155565b5f6020828403121560a0575f5ffd5b5035919050565b8082018082111560c557634e487b7160e01b5f52601160045260245ffd5b9291505056fea2646970667358221220cd09c6de621661186afd674d41d3d1fda839bd1c1bac557d79040c74a7ed94bd64736f6c634300081e0033",
			"opcodes": "PUSH1 0x80 PUSH1 0x40 MSTORE CALLVALUE DUP1 ISZERO PUSH1 0xE JUMPI PUSH0 PUSH0 REVERT JUMPDEST POP PUSH1 0x1 PUSH0 DUP2 SWAP1 SSTORE PUSH1 0x64 SWAP1 SSTORE PUSH2 0x101 DUP1 PUSH2 0x26 PUSH0 CODECOPY PUSH0 RETURN INVALID PUSH1 0x80 PUSH1 0x40 MSTORE CALLVALUE DUP1 ISZERO PUSH1 0xE JUMPI PUSH0 PUSH0 REVERT JUMPDEST POP PUSH1 0x4 CALLDATASIZE LT PUSH1 0x44 JUMPI PUSH0 CALLDATALOAD PUSH1 0xE0 SHR DUP1 PUSH4 0x203836D6 EQ PUSH1 0x48 JUMPI DUP1 PUSH4 0x6E516F24 EQ PUSH1 0x50 JUMPI DUP1 PUSH4 0x999353C1 EQ PUSH1 0x6A JUMPI DUP1 PUSH4 0xC216AE46 EQ PUSH1 0x71 JUMPI JUMPDEST PUSH0 PUSH0 REVERT JUMPDEST PUSH1 0x4E PUSH1 0x80 JUMP JUMPDEST STOP JUMPDEST PUSH1 0x58 PUSH1 0x1 SLOAD DUP2 JUMP JUMPDEST PUSH1 0x40 MLOAD SWAP1 DUP2 MSTORE PUSH1 0x20 ADD PUSH1 0x40 MLOAD DUP1 SWAP2 SUB SWAP1 RETURN JUMPDEST PUSH1 0x58 PUSH0 SLOAD DUP2 JUMP JUMPDEST PUSH1 0x4E PUSH1 0x7C CALLDATASIZE PUSH1 0x4 PUSH1 0x91 JUMP JUMPDEST PUSH0 SSTORE JUMP JUMPDEST PUSH1 0x1 SLOAD PUSH1 0x8C SWAP1 PUSH1 0xA PUSH1 0xA7 JUMP JUMPDEST PUSH1 0x1 SSTORE JUMP JUMPDEST PUSH0 PUSH1 0x20 DUP3 DUP5 SUB SLT ISZERO PUSH1 0xA0 JUMPI PUSH0 PUSH0 REVERT JUMPDEST POP CALLDATALOAD SWAP2 SWAP1 POP JUMP JUMPDEST DUP1 DUP3 ADD DUP1 DUP3 GT ISZERO PUSH1 0xC5 JUMPI PUSH4 0x4E487B71 PUSH1 0xE0 SHL PUSH0 MSTORE PUSH1 0x11 PUSH1 0x4 MSTORE PUSH1 0x24 PUSH0 REVERT JUMPDEST SWAP3 SWAP2 POP POP JUMP INVALID LOG2 PUSH5 0x6970667358 0x22 SLT KECCAK256 0xCD MULMOD 0xC6 0xDE PUSH3 0x166118 PUSH11 0xFD674D41D3D1FDA839BD1C SHL 0xAC SSTORE PUSH30 0x79040C74A7ED94BD64736F6C634300081E00330000000000000000000000 "
		},
		"gasEstimates": {
			"creation": {
				"codeDepositCost": "51400",
				"executionCost": "44320",
				"totalCost": "95720"
			},
			"external": {
				"addWater()": "24402",
				"changePlantId(uint256)": "22353",
				"plantId()": "2303",
				"waterLevel()": "2282"
			}
		},
		"methodIdentifiers": {
			"addWater()": "203836d6",
			"changePlantId(uint256)": "c216ae46",
			"plantId()": "999353c1",
			"waterLevel()": "6e516f24"
		}
	},
	"abi": [
		{
			"inputs": [],
			"stateMutability": "nonpayable",
			"type": "constructor"
		},
		{
			"inputs": [],
			"name": "addWater",
			"outputs": [],
			"stateMutability": "nonpayable",
			"type": "function"
		},
		{
			"inputs": [
				{
					"internalType": "uint256",
					"name": "_newId",
					"type": "uint256"
				}
			],
			"name": "changePlantId",
			"outputs": [],
			"stateMutability": "nonpayable",
			"type": "function"
		},
		{
			"inputs": [],
			"name": "plantId",
			"outputs": [
				{
					"internalType": "uint256",
					"name": "",
					"type": "uint256"
				}
			],
			"stateMutability": "view",
			"type": "function"
		},
		{
			"inputs": [],
			"name": "waterLevel",
			"outputs": [
				{
					"internalType": "uint256",
					"name": "",
					"type": "uint256"
				}
			],
			"stateMutability": "view",
			"type": "function"
		}
	]
}