{
	"data": {
		"bytecode": {
			"linkReferences": {},
			"object": "6080604052348015600e575f5ffd5b50600180546001600160a01b031916331790555f8055610194806100315f395ff3fe608060405234801561000f575f5ffd5b5060043610610055575f3560e01c80632578bb2b1461005957806338cba41c1461008157806385cc8bfb1461008b5780638da5cb5b146100ac5780639c471749146100d7575b5f5ffd5b6040805133815242602082015243918101919091523060608201526080015b60405180910390f35b6100896100df565b005b61009e610099366004610107565b6100f2565b604051908152602001610078565b6001546100bf906001600160a01b031681565b6040516001600160a01b039091168152602001610078565b61009e5f5481565b5f80546100ed906001610132565b5f5550565b5f42816100ff848361014b565b949350505050565b5f60208284031215610117575f5ffd5b5035919050565b634e487b7160e01b5f52601160045260245ffd5b808201808211156101455761014561011e565b92915050565b818103818111156101455761014561011e56fea2646970667358221220ce14963a35ddfc2bb5b466dc2f23ae73e352501d240f717d376c734fa45d39a364736f6c634300081e0033",
			"opcodes": "PUSH1 0x80 PUSH1 0x40 MSTORE CALLVALUE DUP1 ISZERO PUSH1 0xE JUMPI PUSH0 PUSH0 REVERT JUMPDEST POP PUSH1 0x1 DUP1 SLOAD PUSH1 0x1 PUSH1 0x1 PUSH1 0xA0 SHL SUB NOT AND CALLER OR SWAP1 SSTORE PUSH0 DUP1 SSTORE PUSH2 0x194 DUP1 PUSH2 0x31 PUSH0 CODECOPY PUSH0 RETURN INVALID PUSH1 0x80 PUSH1 0x40 MSTORE CALLVALUE DUP1 ISZERO PUSH2 0xF JUMPI PUSH0 PUSH0 REVERT JUMPDEST POP PUSH1 0x4 CALLDATASIZE LT PUSH2 0x55 JUMPI PUSH0 CALLDATALOAD PUSH1 0xE0 SHR DUP1 PUSH4 0x2578BB2B EQ PUSH2 0x59 JUMPI DUP1 PUSH4 0x38CBA41C EQ PUSH2 0x81 JUMPI DUP1 PUSH4 0x85CC8BFB EQ PUSH2 0x8B JUMPI DUP1 PUSH4 0x8DA5CB5B EQ PUSH2 0xAC JUMPI DUP1 PUSH4 0x9C471749 EQ PUSH2 0xD7 JUMPI JUMPDEST PUSH0 PUSH0 REVERT JUMPDEST PUSH1 0x40 DUP1 MLOAD CALLER DUP2 MSTORE TIMESTAMP PUSH1 0x20 DUP3 ADD MSTORE NUMBER SWAP2 DUP2 ADD SWAP2 SWAP1 SWAP2 MSTORE ADDRESS PUSH1 0x60 DUP3 ADD MSTORE PUSH1 0x80 ADD JUMPDEST PUSH1 0x40 MLOAD DUP1 SWAP2 SUB SWAP1 RETURN JUMPDEST PUSH2 0x89 PUSH2 0xDF JUMP JUMPDEST STOP JUMPDEST PUSH2 0x9E PUSH2 0x99 CALLDATASIZE PUSH1 0x4 PUSH2 0x107 JUMP JUMPDEST PUSH2 0xF2 JUMP JUMPDEST PUSH1 0x40 MLOAD SWAP1 DUP2 MSTORE PUSH1 0x20 ADD PUSH2 0x78 JUMP JUMPDEST PUSH1 0x1 SLOAD PUSH2 0xBF SWAP1 PUSH1 0x1 PUSH1 0x1 PUSH1 0xA0 SHL SUB AND DUP2 JUMP JUMPDEST PUSH1 0x40 MLOAD PUSH1 0x1 PUSH1 0x1 PUSH1 0xA0 SHL SUB SWAP1 SWAP2 AND DUP2 MSTORE PUSH1 0x20 ADD PUSH2 0x78 JUMP JUMPDEST PUSH2 0x9E PUSH0 SLOAD DUP2 JUMP JUMPDEST PUSH0 DUP1 SLOAD PUSH2 0xED SWAP1 PUSH1 0x1 PUSH2 0x132 JUMP JUMPDEST PUSH0 SSTORE POP JUMP JUMPDEST PUSH0 TIMESTAMP DUP2 PUSH2 0xFF DUP5 DUP4 PUSH2 0x14B JUMP JUMPDEST SWAP5 SWAP4 POP POP POP POP JUMP JUMPDEST PUSH0 PUSH1 0x20 DUP3 DUP5 SUB SLT ISZERO PUSH2 0x117 JUMPI PUSH0 PUSH0 REVERT JUMPDEST POP CALLDATALOAD SWAP2 SWAP1 POP JUMP JUMPDEST PUSH4 0x4E487B71 PUSH1 0xE0 SHL PUSH0 MSTORE PUSH1 0x11 PUSH1 0x4 MSTORE PUSH1 0x24 PUSH0 REVERT JUMPDEST DUP1 DUP3 ADD DUP1 DUP3 GT ISZERO PUSH2 0x145 JUMPI PUSH2 0x145 PUSH2 0x11E JUMP JUMPDEST SWAP3 SWAP2 POP POP JUMP JUMPDEST DUP2 DUP2 SUB DUP2 DUP2 GT ISZERO PUSH2 0x145 JUMPI PUSH2 0x145 PUSH2 0x11E JUMP INVALID LOG2 PUSH5 0x6970667358 0x22 SLT KECCAK256 0xCE EQ SWAP7 GASPRICE CALLDATALOAD 0xDD 0xFC 0x2B 0xB5 0xB4 PUSH7 0xDC2F23AE73E352 POP SAR 0x24 0xF PUSH18 0x7D376C734FA45D39A364736F6C634300081E STOP CALLER "
		},
		"gasEstimates": {
			"creation": {
				"codeDepositCost": "80800",
				"executionCost": "29367",
				"totalCost": "110167"
			},
			"external": {
				"addPlant()": "24427",
				"calculateAge(uint256)": "394",
				"getGlobalVariables()": "205",
				"owner()": "2380",
				"plantCounter()": "2359"
			}
		},
		"methodIdentifiers": {
			"addPlant()": "38cba41c",
			"calculateAge(uint256)": "85cc8bfb",
			"getGlobalVariables()": "2578bb2b",
			"owner()": "8da5cb5b",
			"plantCounter()": "9c471749"
		}
	},
	"abi": [
		{
			"inputs": [],
			"stateMutability": "nonpayable",
			"type": "constructor"
		},
		{
			"inputs": [],
			"name": "addPlant",
			"outputs": [],
			"stateMutability": "nonpayable",
			"type": "function"
		},
		{
			"inputs": [
				{
					"internalType": "uint256",
					"name": "_plantedTime",
					"type": "uint256"
				}
			],
			"name": "calculateAge",
			"outputs": [
				{
					"internalType": "uint256",
					"name": "",
					"type": "uint256"
				}
			],
			"stateMutability": "view",
			"type": "function"
		},
		{
			"inputs": [],
			"name": "getGlobalVariables",
			"outputs": [
				{
					"internalType": "address",
					"name": "sender",
					"type": "address"
				},
				{
					"internalType": "uint256",
					"name": "timestamp",
					"type": "uint256"
				},
				{
					"internalType": "uint256",
					"name": "blockNumber",
					"type": "uint256"
				},
				{
					"internalType": "address",
					"name": "contractAddress",
					"type": "address"
				}
			],
			"stateMutability": "view",
			"type": "function"
		},
		{
			"inputs": [],
			"name": "owner",
			"outputs": [
				{
					"internalType": "address",
					"name": "",
					"type": "address"
				}
			],
			"stateMutability": "view",
			"type": "function"
		},
		{
			"inputs": [],
			"name": "plantCounter",
			"outputs": [
				{
					"internalType": "uint256",
					"name": "",
					"type": "uint256"
				}
			],
			"stateMutability": "view",
			"type": "function"
		}
	]
}