{
	"data": {
		"bytecode": {
			"linkReferences": {},
			"object": "6080604052348015600e575f5ffd5b506101d68061001c5f395ff3fe608060405234801561000f575f5ffd5b506004361061004a575f3560e01c806338cba41c1461004e5780633a532937146100585780639886bcfa1461009d5780639c471749146100b0575b5f5ffd5b6100566100c7565b005b610080610066366004610165565b5f602081905290815260409020546001600160a01b031681565b6040516001600160a01b0390911681526020015b60405180910390f35b6100566100ab366004610165565b61012c565b6100b960015481565b604051908152602001610094565b60018054905f6100d68361017c565b9091555050600180545f9081526020819052604080822080546001600160a01b03191633908117909155925490519092917f39550768d15c7242fee3ce7dae2f01635f80f19fb8bc46130699cee6d63ec92a91a3565b6040516064815281907fd4b742b9ba48fffa1f14267075a7793851770764117c423fd0a6550dfc8cb5749060200160405180910390a250565b5f60208284031215610175575f5ffd5b5035919050565b5f6001820161019957634e487b7160e01b5f52601160045260245ffd5b506001019056fea2646970667358221220afbad48725a272b5a3d2023577407c45639898f05da7ed70889d1a1abcccf09664736f6c634300081e0033",
			"opcodes": "PUSH1 0x80 PUSH1 0x40 MSTORE CALLVALUE DUP1 ISZERO PUSH1 0xE JUMPI PUSH0 PUSH0 REVERT JUMPDEST POP PUSH2 0x1D6 DUP1 PUSH2 0x1C PUSH0 CODECOPY PUSH0 RETURN INVALID PUSH1 0x80 PUSH1 0x40 MSTORE CALLVALUE DUP1 ISZERO PUSH2 0xF JUMPI PUSH0 PUSH0 REVERT JUMPDEST POP PUSH1 0x4 CALLDATASIZE LT PUSH2 0x4A JUMPI PUSH0 CALLDATALOAD PUSH1 0xE0 SHR DUP1 PUSH4 0x38CBA41C EQ PUSH2 0x4E JUMPI DUP1 PUSH4 0x3A532937 EQ PUSH2 0x58 JUMPI DUP1 PUSH4 0x9886BCFA EQ PUSH2 0x9D JUMPI DUP1 PUSH4 0x9C471749 EQ PUSH2 0xB0 JUMPI JUMPDEST PUSH0 PUSH0 REVERT JUMPDEST PUSH2 0x56 PUSH2 0xC7 JUMP JUMPDEST STOP JUMPDEST PUSH2 0x80 PUSH2 0x66 CALLDATASIZE PUSH1 0x4 PUSH2 0x165 JUMP JUMPDEST PUSH0 PUSH1 0x20 DUP2 SWAP1 MSTORE SWAP1 DUP2 MSTORE PUSH1 0x40 SWAP1 KECCAK256 SLOAD PUSH1 0x1 PUSH1 0x1 PUSH1 0xA0 SHL SUB AND DUP2 JUMP JUMPDEST PUSH1 0x40 MLOAD PUSH1 0x1 PUSH1 0x1 PUSH1 0xA0 SHL SUB SWAP1 SWAP2 AND DUP2 MSTORE PUSH1 0x20 ADD JUMPDEST PUSH1 0x40 MLOAD DUP1 SWAP2 SUB SWAP1 RETURN JUMPDEST PUSH2 0x56 PUSH2 0xAB CALLDATASIZE PUSH1 0x4 PUSH2 0x165 JUMP JUMPDEST PUSH2 0x12C JUMP JUMPDEST PUSH2 0xB9 PUSH1 0x1 SLOAD DUP2 JUMP JUMPDEST PUSH1 0x40 MLOAD SWAP1 DUP2 MSTORE PUSH1 0x20 ADD PUSH2 0x94 JUMP JUMPDEST PUSH1 0x1 DUP1 SLOAD SWAP1 PUSH0 PUSH2 0xD6 DUP4 PUSH2 0x17C JUMP JUMPDEST SWAP1 SWAP2 SSTORE POP POP PUSH1 0x1 DUP1 SLOAD PUSH0 SWAP1 DUP2 MSTORE PUSH1 0x20 DUP2 SWAP1 MSTORE PUSH1 0x40 DUP1 DUP3 KECCAK256 DUP1 SLOAD PUSH1 0x1 PUSH1 0x1 PUSH1 0xA0 SHL SUB NOT AND CALLER SWAP1 DUP2 OR SWAP1 SWAP2 SSTORE SWAP3 SLOAD SWAP1 MLOAD SWAP1 SWAP3 SWAP2 PUSH32 0x39550768D15C7242FEE3CE7DAE2F01635F80F19FB8BC46130699CEE6D63EC92A SWAP2 LOG3 JUMP JUMPDEST PUSH1 0x40 MLOAD PUSH1 0x64 DUP2 MSTORE DUP2 SWAP1 PUSH32 0xD4B742B9BA48FFFA1F14267075A7793851770764117C423FD0A6550DFC8CB574 SWAP1 PUSH1 0x20 ADD PUSH1 0x40 MLOAD DUP1 SWAP2 SUB SWAP1 LOG2 POP JUMP JUMPDEST PUSH0 PUSH1 0x20 DUP3 DUP5 SUB SLT ISZERO PUSH2 0x175 JUMPI PUSH0 PUSH0 REVERT JUMPDEST POP CALLDATALOAD SWAP2 SWAP1 POP JUMP JUMPDEST PUSH0 PUSH1 0x1 DUP3 ADD PUSH2 0x199 JUMPI PUSH4 0x4E487B71 PUSH1 0xE0 SHL PUSH0 MSTORE PUSH1 0x11 PUSH1 0x4 MSTORE PUSH1 0x24 PUSH0 REVERT JUMPDEST POP PUSH1 0x1 ADD SWAP1 JUMP INVALID LOG2 PUSH5 0x6970667358 0x22 SLT KECCAK256 0xAF 0xBA 0xD4 DUP8 0x25 LOG2 PUSH19 0xB5A3D2023577407C45639898F05DA7ED70889D BYTE BYTE 0xBC 0xCC CREATE SWAP7 PUSH5 0x736F6C6343 STOP ADDMOD 0x1E STOP CALLER "
		},
		"gasEstimates": {
			"creation": {
				"codeDepositCost": "94000",
				"executionCost": "139",
				"totalCost": "94139"
			},
			"external": {
				"addPlant()": "54450",
				"plantCounter()": "2338",
				"plantOwner(uint256)": "2466",
				"waterPlant(uint256)": "1681"
			}
		},
		"methodIdentifiers": {
			"addPlant()": "38cba41c",
			"plantCounter()": "9c471749",
			"plantOwner(uint256)": "3a532937",
			"waterPlant(uint256)": "9886bcfa"
		}
	},
	"abi": [
		{
			"anonymous": false,
			"inputs": [
				{
					"indexed": true,
					"internalType": "address",
					"name": "owner",
					"type": "address"
				},
				{
					"indexed": true,
					"internalType": "uint256",
					"name": "plantId",
					"type": "uint256"
				}
			],
			"name": "PlantAdded",
			"type": "event"
		},
		{
			"anonymous": false,
			"inputs": [
				{
					"indexed": true,
					"internalType": "uint256",
					"name": "plantId",
					"type": "uint256"
				},
				{
					"indexed": false,
					"internalType": "uint8",
					"name": "waterLevel",
					"type": "uint8"
				}
			],
			"name": "PlantWatered",
			"type": "event"
		},
		{
			"inputs": [],
			"name": "addPlant",
			"outputs": [],
			"stateMutability": "nonpayable",
			"type": "function"
		},
		{
			"inputs": [],
			"name": "plantCounter",
			"outputs": [
				{
					"internalType": "uint256",
					"name": "",
					"type": "uint256"
				}
			],
			"stateMutability": "view",
			"type": "function"
		},
		{
			"inputs": [
				{
					"internalType": "uint256",
					"name": "",
					"type": "uint256"
				}
			],
			"name": "plantOwner",
			"outputs": [
				{
					"internalType": "address",
					"name": "",
					"type": "address"
				}
			],
			"stateMutability": "view",
			"type": "function"
		},
		{
			"inputs": [
				{
					"internalType": "uint256",
					"name": "_plantId",
					"type": "uint256"
				}
			],
			"name": "waterPlant",
			"outputs": [],
			"stateMutability": "nonpayable",
			"type": "function"
		}
	]
}