{
	"data": {
		"bytecode": {
			"linkReferences": {},
			"object": "6080604052348015600e575f5ffd5b5061017e8061001c5f395ff3fe608060405234801561000f575f5ffd5b506004361061004a575f3560e01c8063132580691461004e5780633a532937146100905780639886bcfa146100d5578063e8ea6c10146100fd575b5f5ffd5b61008e61005c366004610131565b5f90815260208181526040808320805460ff191660641790556001909152902080546001600160a01b03191633179055565b005b6100b861009e366004610131565b60016020525f90815260409020546001600160a01b031681565b6040516001600160a01b0390911681526020015b60405180910390f35b61008e6100e3366004610131565b5f908152602081905260409020805460ff19166064179055565b61011f61010b366004610131565b5f6020819052908152604090205460ff1681565b60405160ff90911681526020016100cc565b5f60208284031215610141575f5ffd5b503591905056fea2646970667358221220441b9930c6a5772e120fbf1392f67fda932aca385f01b62ed8fadbb7c04b501964736f6c634300081e0033",
			"opcodes": "PUSH1 0x80 PUSH1 0x40 MSTORE CALLVALUE DUP1 ISZERO PUSH1 0xE JUMPI PUSH0 PUSH0 REVERT JUMPDEST POP PUSH2 0x17E DUP1 PUSH2 0x1C PUSH0 CODECOPY PUSH0 RETURN INVALID PUSH1 0x80 PUSH1 0x40 MSTORE CALLVALUE DUP1 ISZERO PUSH2 0xF JUMPI PUSH0 PUSH0 REVERT JUMPDEST POP PUSH1 0x4 CALLDATASIZE LT PUSH2 0x4A JUMPI PUSH0 CALLDATALOAD PUSH1 0xE0 SHR DUP1 PUSH4 0x13258069 EQ PUSH2 0x4E JUMPI DUP1 PUSH4 0x3A532937 EQ PUSH2 0x90 JUMPI DUP1 PUSH4 0x9886BCFA EQ PUSH2 0xD5 JUMPI DUP1 PUSH4 0xE8EA6C10 EQ PUSH2 0xFD JUMPI JUMPDEST PUSH0 PUSH0 REVERT JUMPDEST PUSH2 0x8E PUSH2 0x5C CALLDATASIZE PUSH1 0x4 PUSH2 0x131 JUMP JUMPDEST PUSH0 SWAP1 DUP2 MSTORE PUSH1 0x20 DUP2 DUP2 MSTORE PUSH1 0x40 DUP1 DUP4 KECCAK256 DUP1 SLOAD PUSH1 0xFF NOT AND PUSH1 0x64 OR SWAP1 SSTORE PUSH1 0x1 SWAP1 SWAP2 MSTORE SWAP1 KECCAK256 DUP1 SLOAD PUSH1 0x1 PUSH1 0x1 PUSH1 0xA0 SHL SUB NOT AND CALLER OR SWAP1 SSTORE JUMP JUMPDEST STOP JUMPDEST PUSH2 0xB8 PUSH2 0x9E CALLDATASIZE PUSH1 0x4 PUSH2 0x131 JUMP JUMPDEST PUSH1 0x1 PUSH1 0x20 MSTORE PUSH0 SWAP1 DUP2 MSTORE PUSH1 0x40 SWAP1 KECCAK256 SLOAD PUSH1 0x1 PUSH1 0x1 PUSH1 0xA0 SHL SUB AND DUP2 JUMP JUMPDEST PUSH1 0x40 MLOAD PUSH1 0x1 PUSH1 0x1 PUSH1 0xA0 SHL SUB SWAP1 SWAP2 AND DUP2 MSTORE PUSH1 0x20 ADD JUMPDEST PUSH1 0x40 MLOAD DUP1 SWAP2 SUB SWAP1 RETURN JUMPDEST PUSH2 0x8E PUSH2 0xE3 CALLDATASIZE PUSH1 0x4 PUSH2 0x131 JUMP JUMPDEST PUSH0 SWAP1 DUP2 MSTORE PUSH1 0x20 DUP2 SWAP1 MSTORE PUSH1 0x40 SWAP1 KECCAK256 DUP1 SLOAD PUSH1 0xFF NOT AND PUSH1 0x64 OR SWAP1 SSTORE JUMP JUMPDEST PUSH2 0x11F PUSH2 0x10B CALLDATASIZE PUSH1 0x4 PUSH2 0x131 JUMP JUMPDEST PUSH0 PUSH1 0x20 DUP2 SWAP1 MSTORE SWAP1 DUP2 MSTORE PUSH1 0x40 SWAP1 KECCAK256 SLOAD PUSH1 0xFF AND DUP2 JUMP JUMPDEST PUSH1 0x40 MLOAD PUSH1 0xFF SWAP1 SWAP2 AND DUP2 MSTORE PUSH1 0x20 ADD PUSH2 0xCC JUMP JUMPDEST PUSH0 PUSH1 0x20 DUP3 DUP5 SUB SLT ISZERO PUSH2 0x141 JUMPI PUSH0 PUSH0 REVERT JUMPDEST POP CALLDATALOAD SWAP2 SWAP1 POP JUMP INVALID LOG2 PUSH5 0x6970667358 0x22 SLT KECCAK256 PREVRANDAO SHL SWAP10 ADDRESS 0xC6 0xA5 PUSH24 0x2E120FBF1392F67FDA932ACA385F01B62ED8FADBB7C04B50 NOT PUSH5 0x736F6C6343 STOP ADDMOD 0x1E STOP CALLER "
		},
		"gasEstimates": {
			"creation": {
				"codeDepositCost": "76400",
				"executionCost": "121",
				"totalCost": "76521"
			},
			"external": {
				"addPlant(uint256)": "48769",
				"plantOwner(uint256)": "2463",
				"plantWater(uint256)": "2497",
				"waterPlant(uint256)": "24521"
			}
		},
		"methodIdentifiers": {
			"addPlant(uint256)": "13258069",
			"plantOwner(uint256)": "3a532937",
			"plantWater(uint256)": "e8ea6c10",
			"waterPlant(uint256)": "9886bcfa"
		}
	},
	"abi": [
		{
			"inputs": [
				{
					"internalType": "uint256",
					"name": "_plantId",
					"type": "uint256"
				}
			],
			"name": "addPlant",
			"outputs": [],
			"stateMutability": "nonpayable",
			"type": "function"
		},
		{
			"inputs": [
				{
					"internalType": "uint256",
					"name": "",
					"type": "uint256"
				}
			],
			"name": "plantOwner",
			"outputs": [
				{
					"internalType": "address",
					"name": "",
					"type": "address"
				}
			],
			"stateMutability": "view",
			"type": "function"
		},
		{
			"inputs": [
				{
					"internalType": "uint256",
					"name": "",
					"type": "uint256"
				}
			],
			"name": "plantWater",
			"outputs": [
				{
					"internalType": "uint8",
					"name": "",
					"type": "uint8"
				}
			],
			"stateMutability": "view",
			"type": "function"
		},
		{
			"inputs": [
				{
					"internalType": "uint256",
					"name": "_plantId",
					"type": "uint256"
				}
			],
			"name": "waterPlant",
			"outputs": [],
			"stateMutability": "nonpayable",
			"type": "function"
		}
	]
}