{
	"data": {
		"bytecode": {
			"linkReferences": {},
			"object": "6080604052348015600e575f5ffd5b505f805461ffff19166001179055610102806100295f395ff3fe6080604052348015600e575f5ffd5b50600436106044575f3560e01c80634136aa351460485780639b3de49b1460675780639d506e95146086578063d26da14f146096575b5f5ffd5b5f5460539060ff1681565b604051901515815260200160405180910390f35b6084607236600460a8565b5f805460ff1916911515919091179055565b005b5f54605390610100900460ff1681565b60845f805461ff001916610100179055565b5f6020828403121560b7575f5ffd5b8135801515811460c5575f5ffd5b939250505056fea26469706673582212200e7b28d5db62347041c804f6724600e47b2190af5f4b994a9b11c36fafc7a16e64736f6c634300081e0033",
			"opcodes": "PUSH1 0x80 PUSH1 0x40 MSTORE CALLVALUE DUP1 ISZERO PUSH1 0xE JUMPI PUSH0 PUSH0 REVERT JUMPDEST POP PUSH0 DUP1 SLOAD PUSH2 0xFFFF NOT AND PUSH1 0x1 OR SWAP1 SSTORE PUSH2 0x102 DUP1 PUSH2 0x29 PUSH0 CODECOPY PUSH0 RETURN INVALID PUSH1 0x80 PUSH1 0x40 MSTORE CALLVALUE DUP1 ISZERO PUSH1 0xE JUMPI PUSH0 PUSH0 REVERT JUMPDEST POP PUSH1 0x4 CALLDATASIZE LT PUSH1 0x44 JUMPI PUSH0 CALLDATALOAD PUSH1 0xE0 SHR DUP1 PUSH4 0x4136AA35 EQ PUSH1 0x48 JUMPI DUP1 PUSH4 0x9B3DE49B EQ PUSH1 0x67 JUMPI DUP1 PUSH4 0x9D506E95 EQ PUSH1 0x86 JUMPI DUP1 PUSH4 0xD26DA14F EQ PUSH1 0x96 JUMPI JUMPDEST PUSH0 PUSH0 REVERT JUMPDEST PUSH0 SLOAD PUSH1 0x53 SWAP1 PUSH1 0xFF AND DUP2 JUMP JUMPDEST PUSH1 0x40 MLOAD SWAP1 ISZERO ISZERO DUP2 MSTORE PUSH1 0x20 ADD PUSH1 0x40 MLOAD DUP1 SWAP2 SUB SWAP1 RETURN JUMPDEST PUSH1 0x84 PUSH1 0x72 CALLDATASIZE PUSH1 0x4 PUSH1 0xA8 JUMP JUMPDEST PUSH0 DUP1 SLOAD PUSH1 0xFF NOT AND SWAP2 ISZERO ISZERO SWAP2 SWAP1 SWAP2 OR SWAP1 SSTORE JUMP JUMPDEST STOP JUMPDEST PUSH0 SLOAD PUSH1 0x53 SWAP1 PUSH2 0x100 SWAP1 DIV PUSH1 0xFF AND DUP2 JUMP JUMPDEST PUSH1 0x84 PUSH0 DUP1 SLOAD PUSH2 0xFF00 NOT AND PUSH2 0x100 OR SWAP1 SSTORE JUMP JUMPDEST PUSH0 PUSH1 0x20 DUP3 DUP5 SUB SLT ISZERO PUSH1 0xB7 JUMPI PUSH0 PUSH0 REVERT JUMPDEST DUP2 CALLDATALOAD DUP1 ISZERO ISZERO DUP2 EQ PUSH1 0xC5 JUMPI PUSH0 PUSH0 REVERT JUMPDEST SWAP4 SWAP3 POP POP POP JUMP INVALID LOG2 PUSH5 0x6970667358 0x22 SLT KECCAK256 0xE PUSH28 0x28D5DB62347041C804F6724600E47B2190AF5F4B994A9B11C36FAFC7 LOG1 PUSH15 0x64736F6C634300081E003300000000 "
		},
		"gasEstimates": {
			"creation": {
				"codeDepositCost": "51600",
				"executionCost": "24326",
				"totalCost": "75926"
			},
			"external": {
				"bloom()": "24398",
				"changeStatus(bool)": "24479",
				"isAlive()": "2274",
				"isBlooming()": "2329"
			}
		},
		"methodIdentifiers": {
			"bloom()": "d26da14f",
			"changeStatus(bool)": "9b3de49b",
			"isAlive()": "4136aa35",
			"isBlooming()": "9d506e95"
		}
	},
	"abi": [
		{
			"inputs": [],
			"stateMutability": "nonpayable",
			"type": "constructor"
		},
		{
			"inputs": [],
			"name": "bloom",
			"outputs": [],
			"stateMutability": "nonpayable",
			"type": "function"
		},
		{
			"inputs": [
				{
					"internalType": "bool",
					"name": "_status",
					"type": "bool"
				}
			],
			"name": "changeStatus",
			"outputs": [],
			"stateMutability": "nonpayable",
			"type": "function"
		},
		{
			"inputs": [],
			"name": "isAlive",
			"outputs": [
				{
					"internalType": "bool",
					"name": "",
					"type": "bool"
				}
			],
			"stateMutability": "view",
			"type": "function"
		},
		{
			"inputs": [],
			"name": "isBlooming",
			"outputs": [
				{
					"internalType": "bool",
					"name": "",
					"type": "bool"
				}
			],
			"stateMutability": "view",
			"type": "function"
		}
	]
}